{
  "_format": "hh-sol-artifact-1",
  "contractName": "organization",
  "sourceName": "contracts/organization.sol",
  "abi": [
    {
      "inputs": [
        {
          "internalType": "string",
          "name": "_document",
          "type": "string"
        },
        {
          "internalType": "address",
          "name": "_ass",
          "type": "address"
        }
      ],
      "name": "addPermission",
      "outputs": [],
      "stateMutability": "nonpayable",
      "type": "function"
    },
    {
      "inputs": [
        {
          "internalType": "string",
          "name": "org",
          "type": "string"
        },
        {
          "internalType": "address",
          "name": "_ass",
          "type": "address"
        }
      ],
      "name": "add_authority",
      "outputs": [],
      "stateMutability": "nonpayable",
      "type": "function"
    },
    {
      "inputs": [
        {
          "internalType": "address",
          "name": "_user",
          "type": "address"
        }
      ],
      "name": "fetchSpecific",
      "outputs": [
        {
          "components": [
            {
              "internalType": "string",
              "name": "docType",
              "type": "string"
            },
            {
              "internalType": "string",
              "name": "docId",
              "type": "string"
            },
            {
              "internalType": "string",
              "name": "name",
              "type": "string"
            },
            {
              "internalType": "string",
              "name": "dob",
              "type": "string"
            },
            {
              "internalType": "string",
              "name": "org",
              "type": "string"
            }
          ],
          "internalType": "struct organization.doc_info[]",
          "name": "",
          "type": "tuple[]"
        }
      ],
      "stateMutability": "view",
      "type": "function"
    },
    {
      "inputs": [],
      "name": "getDocumnets",
      "outputs": [
        {
          "components": [
            {
              "internalType": "string",
              "name": "docType",
              "type": "string"
            },
            {
              "internalType": "string",
              "name": "docId",
              "type": "string"
            },
            {
              "internalType": "string",
              "name": "name",
              "type": "string"
            },
            {
              "internalType": "string",
              "name": "dob",
              "type": "string"
            },
            {
              "internalType": "string",
              "name": "org",
              "type": "string"
            }
          ],
          "internalType": "struct organization.doc_info[]",
          "name": "",
          "type": "tuple[]"
        }
      ],
      "stateMutability": "view",
      "type": "function"
    },
    {
      "inputs": [
        {
          "internalType": "address",
          "name": "_ass",
          "type": "address"
        }
      ],
      "name": "getName",
      "outputs": [
        {
          "internalType": "string",
          "name": "",
          "type": "string"
        }
      ],
      "stateMutability": "view",
      "type": "function"
    },
    {
      "inputs": [
        {
          "internalType": "address",
          "name": "_user",
          "type": "address"
        },
        {
          "internalType": "string",
          "name": "_document",
          "type": "string"
        },
        {
          "internalType": "string",
          "name": "doc_type",
          "type": "string"
        },
        {
          "internalType": "string",
          "name": "_name",
          "type": "string"
        },
        {
          "internalType": "string",
          "name": "_dob",
          "type": "string"
        },
        {
          "internalType": "address",
          "name": "_ass",
          "type": "address"
        }
      ],
      "name": "issueDocument",
      "outputs": [],
      "stateMutability": "nonpayable",
      "type": "function"
    },
    {
      "inputs": [
        {
          "internalType": "address",
          "name": "",
          "type": "address"
        }
      ],
      "name": "orgs",
      "outputs": [
        {
          "internalType": "string",
          "name": "",
          "type": "string"
        }
      ],
      "stateMutability": "view",
      "type": "function"
    },
    {
      "inputs": [
        {
          "internalType": "address",
          "name": "_user",
          "type": "address"
        }
      ],
      "name": "userType",
      "outputs": [
        {
          "internalType": "uint256",
          "name": "",
          "type": "uint256"
        }
      ],
      "stateMutability": "view",
      "type": "function"
    }
  ],
  "bytecode": "0x608060405234801561001057600080fd5b50611c4a806100206000396000f3fe608060405234801561001057600080fd5b50600436106100885760003560e01c806376d0d4ea1161005b57806376d0d4ea146101275780639556973b14610143578063b83458b014610173578063ef4b467c146101a357610088565b80631b3c10831461008d5780632eb2e58a146100ab5780633bf479ff146100c75780635fd4b08a146100f7575b600080fd5b6100956101bf565b6040516100a29190611322565b60405180910390f35b6100c560048036038101906100c091906114eb565b6104f8565b005b6100e160048036038101906100dc9190611547565b6105ab565b6040516100ee91906115be565b60405180910390f35b610111600480360381019061010c9190611547565b61064b565b60405161011e91906115be565b60405180910390f35b610141600480360381019061013c91906115e0565b61071b565b005b61015d60048036038101906101589190611547565b610c24565b60405161016a9190611322565b60405180910390f35b61018d60048036038101906101889190611547565b610ffa565b60405161019a91906116f6565b60405180910390f35b6101bd60048036038101906101b891906114eb565b6110c8565b005b60606005805480602002602001604051908101604052809291908181526020016000905b828210156104ef57838290600052602060002090600502016040518060a001604052908160008201805461021690611740565b80601f016020809104026020016040519081016040528092919081815260200182805461024290611740565b801561028f5780601f106102645761010080835404028352916020019161028f565b820191906000526020600020905b81548152906001019060200180831161027257829003601f168201915b505050505081526020016001820180546102a890611740565b80601f01602080910402602001604051908101604052809291908181526020018280546102d490611740565b80156103215780601f106102f657610100808354040283529160200191610321565b820191906000526020600020905b81548152906001019060200180831161030457829003601f168201915b5050505050815260200160028201805461033a90611740565b80601f016020809104026020016040519081016040528092919081815260200182805461036690611740565b80156103b35780601f10610388576101008083540402835291602001916103b3565b820191906000526020600020905b81548152906001019060200180831161039657829003601f168201915b505050505081526020016003820180546103cc90611740565b80601f01602080910402602001604051908101604052809291908181526020018280546103f890611740565b80156104455780601f1061041a57610100808354040283529160200191610445565b820191906000526020600020905b81548152906001019060200180831161042857829003601f168201915b5050505050815260200160048201805461045e90611740565b80601f016020809104026020016040519081016040528092919081815260200182805461048a90611740565b80156104d75780601f106104ac576101008083540402835291602001916104d7565b820191906000526020600020905b8154815290600101906020018083116104ba57829003601f168201915b505050505081525050815260200190600101906101e3565b50505050905090565b6004819080600181540180825580915050600190039060005260206000200160009091909190916101000a81548173ffffffffffffffffffffffffffffffffffffffff021916908373ffffffffffffffffffffffffffffffffffffffff160217905550816000808373ffffffffffffffffffffffffffffffffffffffff1673ffffffffffffffffffffffffffffffffffffffff16815260200190815260200160002090816105a6919061191d565b505050565b600060205280600052604060002060009150905080546105ca90611740565b80601f01602080910402602001604051908101604052809291908181526020018280546105f690611740565b80156106435780601f1061061857610100808354040283529160200191610643565b820191906000526020600020905b81548152906001019060200180831161062657829003601f168201915b505050505081565b60606000808373ffffffffffffffffffffffffffffffffffffffff1673ffffffffffffffffffffffffffffffffffffffff168152602001908152602001600020805461069690611740565b80601f01602080910402602001604051908101604052809291908181526020018280546106c290611740565b801561070f5780601f106106e45761010080835404028352916020019161070f565b820191906000526020600020905b8154815290600101906020018083116106f257829003601f168201915b50505050509050919050565b6000805b600160008473ffffffffffffffffffffffffffffffffffffffff1673ffffffffffffffffffffffffffffffffffffffff16815260200190815260200160002080549050811015610bd7578560405160200161077a9190611a2b565b60405160208183030381529060405280519060200120600160008573ffffffffffffffffffffffffffffffffffffffff1673ffffffffffffffffffffffffffffffffffffffff16815260200190815260200160002082815481106107e1576107e0611a42565b5b906000526020600020016040516020016107fb9190611af4565b6040516020818303038152906040528051906020012003610bc4576001600260008a73ffffffffffffffffffffffffffffffffffffffff1673ffffffffffffffffffffffffffffffffffffffff16815260200190815260200160002060006101000a81548160ff021916908315150217905550600360008973ffffffffffffffffffffffffffffffffffffffff1673ffffffffffffffffffffffffffffffffffffffff1681526020019081526020016000206040518060a001604052808881526020018981526020018781526020018681526020016000808773ffffffffffffffffffffffffffffffffffffffff1673ffffffffffffffffffffffffffffffffffffffff168152602001908152602001600020805461091990611740565b80601f016020809104026020016040519081016040528092919081815260200182805461094590611740565b80156109925780601f1061096757610100808354040283529160200191610992565b820191906000526020600020905b81548152906001019060200180831161097557829003601f168201915b5050505050815250908060018154018082558091505060019003906000526020600020906005020160009091909190915060008201518160000190816109d8919061191d565b5060208201518160010190816109ee919061191d565b506040820151816002019081610a04919061191d565b506060820151816003019081610a1a919061191d565b506080820151816004019081610a30919061191d565b50505060056040518060a001604052808881526020018981526020018781526020018681526020016000808773ffffffffffffffffffffffffffffffffffffffff1673ffffffffffffffffffffffffffffffffffffffff1681526020019081526020016000208054610aa190611740565b80601f0160208091040260200160405190810160405280929190818152602001828054610acd90611740565b8015610b1a5780601f10610aef57610100808354040283529160200191610b1a565b820191906000526020600020905b815481529060010190602001808311610afd57829003601f168201915b505050505081525090806001815401808255809150506001900390600052602060002090600502016000909190919091506000820151816000019081610b60919061191d565b506020820151816001019081610b76919061191d565b506040820151816002019081610b8c919061191d565b506060820151816003019081610ba2919061191d565b506080820151816004019081610bb8919061191d565b50505060019150610bd7565b8080610bcf90611b3a565b91505061071f565b5060008103610c1b576040517f08c379a0000000000000000000000000000000000000000000000000000000008152600401610c1290611bf4565b60405180910390fd5b50505050505050565b6060600260008373ffffffffffffffffffffffffffffffffffffffff1673ffffffffffffffffffffffffffffffffffffffff16815260200190815260200160002060009054906101000a900460ff1615610fee57600360008373ffffffffffffffffffffffffffffffffffffffff1673ffffffffffffffffffffffffffffffffffffffff168152602001908152602001600020805480602002602001604051908101604052809291908181526020016000905b82821015610fe357838290600052602060002090600502016040518060a0016040529081600082018054610d0a90611740565b80601f0160208091040260200160405190810160405280929190818152602001828054610d3690611740565b8015610d835780601f10610d5857610100808354040283529160200191610d83565b820191906000526020600020905b815481529060010190602001808311610d6657829003601f168201915b50505050508152602001600182018054610d9c90611740565b80601f0160208091040260200160405190810160405280929190818152602001828054610dc890611740565b8015610e155780601f10610dea57610100808354040283529160200191610e15565b820191906000526020600020905b815481529060010190602001808311610df857829003601f168201915b50505050508152602001600282018054610e2e90611740565b80601f0160208091040260200160405190810160405280929190818152602001828054610e5a90611740565b8015610ea75780601f10610e7c57610100808354040283529160200191610ea7565b820191906000526020600020905b815481529060010190602001808311610e8a57829003601f168201915b50505050508152602001600382018054610ec090611740565b80601f0160208091040260200160405190810160405280929190818152602001828054610eec90611740565b8015610f395780601f10610f0e57610100808354040283529160200191610f39565b820191906000526020600020905b815481529060010190602001808311610f1c57829003601f168201915b50505050508152602001600482018054610f5290611740565b80601f0160208091040260200160405190810160405280929190818152602001828054610f7e90611740565b8015610fcb5780601f10610fa057610100808354040283529160200191610fcb565b820191906000526020600020905b815481529060010190602001808311610fae57829003601f168201915b50505050508152505081526020019060010190610cd7565b505050509050610ff5565b6060809150505b919050565b600060011515600260008473ffffffffffffffffffffffffffffffffffffffff1673ffffffffffffffffffffffffffffffffffffffff16815260200190815260200160002060009054906101000a900460ff1615150361105d57600190506110c3565b60001515600260008473ffffffffffffffffffffffffffffffffffffffff1673ffffffffffffffffffffffffffffffffffffffff16815260200190815260200160002060009054906101000a900460ff161515036110be57600290506110c3565b600390505b919050565b600160008273ffffffffffffffffffffffffffffffffffffffff1673ffffffffffffffffffffffffffffffffffffffff16815260200190815260200160002082908060018154018082558091505060019003906000526020600020016000909190919091509081611139919061191d565b505050565b600081519050919050565b600082825260208201905092915050565b6000819050602082019050919050565b600081519050919050565b600082825260208201905092915050565b60005b838110156111a4578082015181840152602081019050611189565b60008484015250505050565b6000601f19601f8301169050919050565b60006111cc8261116a565b6111d68185611175565b93506111e6818560208601611186565b6111ef816111b0565b840191505092915050565b600060a083016000830151848203600086015261121782826111c1565b9150506020830151848203602086015261123182826111c1565b9150506040830151848203604086015261124b82826111c1565b9150506060830151848203606086015261126582826111c1565b9150506080830151848203608086015261127f82826111c1565b9150508091505092915050565b600061129883836111fa565b905092915050565b6000602082019050919050565b60006112b88261113e565b6112c28185611149565b9350836020820285016112d48561115a565b8060005b8581101561131057848403895281516112f1858261128c565b94506112fc836112a0565b925060208a019950506001810190506112d8565b50829750879550505050505092915050565b6000602082019050818103600083015261133c81846112ad565b905092915050565b6000604051905090565b600080fd5b600080fd5b600080fd5b600080fd5b7f4e487b7100000000000000000000000000000000000000000000000000000000600052604160045260246000fd5b61139a826111b0565b810181811067ffffffffffffffff821117156113b9576113b8611362565b5b80604052505050565b60006113cc611344565b90506113d88282611391565b919050565b600067ffffffffffffffff8211156113f8576113f7611362565b5b611401826111b0565b9050602081019050919050565b82818337600083830152505050565b600061143061142b846113dd565b6113c2565b90508281526020810184848401111561144c5761144b61135d565b5b61145784828561140e565b509392505050565b600082601f83011261147457611473611358565b5b813561148484826020860161141d565b91505092915050565b600073ffffffffffffffffffffffffffffffffffffffff82169050919050565b60006114b88261148d565b9050919050565b6114c8816114ad565b81146114d357600080fd5b50565b6000813590506114e5816114bf565b92915050565b600080604083850312156115025761150161134e565b5b600083013567ffffffffffffffff8111156115205761151f611353565b5b61152c8582860161145f565b925050602061153d858286016114d6565b9150509250929050565b60006020828403121561155d5761155c61134e565b5b600061156b848285016114d6565b91505092915050565b600082825260208201905092915050565b60006115908261116a565b61159a8185611574565b93506115aa818560208601611186565b6115b3816111b0565b840191505092915050565b600060208201905081810360008301526115d88184611585565b905092915050565b60008060008060008060c087890312156115fd576115fc61134e565b5b600061160b89828a016114d6565b965050602087013567ffffffffffffffff81111561162c5761162b611353565b5b61163889828a0161145f565b955050604087013567ffffffffffffffff81111561165957611658611353565b5b61166589828a0161145f565b945050606087013567ffffffffffffffff81111561168657611685611353565b5b61169289828a0161145f565b935050608087013567ffffffffffffffff8111156116b3576116b2611353565b5b6116bf89828a0161145f565b92505060a06116d089828a016114d6565b9150509295509295509295565b6000819050919050565b6116f0816116dd565b82525050565b600060208201905061170b60008301846116e7565b92915050565b7f4e487b7100000000000000000000000000000000000000000000000000000000600052602260045260246000fd5b6000600282049050600182168061175857607f821691505b60208210810361176b5761176a611711565b5b50919050565b60008190508160005260206000209050919050565b60006020601f8301049050919050565b600082821b905092915050565b6000600883026117d37fffffffffffffffffffffffffffffffffffffffffffffffffffffffffffffffff82611796565b6117dd8683611796565b95508019841693508086168417925050509392505050565b6000819050919050565b600061181a611815611810846116dd565b6117f5565b6116dd565b9050919050565b6000819050919050565b611834836117ff565b61184861184082611821565b8484546117a3565b825550505050565b600090565b61185d611850565b61186881848461182b565b505050565b5b8181101561188c57611881600082611855565b60018101905061186e565b5050565b601f8211156118d1576118a281611771565b6118ab84611786565b810160208510156118ba578190505b6118ce6118c685611786565b83018261186d565b50505b505050565b600082821c905092915050565b60006118f4600019846008026118d6565b1980831691505092915050565b600061190d83836118e3565b9150826002028217905092915050565b6119268261116a565b67ffffffffffffffff81111561193f5761193e611362565b5b6119498254611740565b611954828285611890565b600060209050601f8311600181146119875760008415611975578287015190505b61197f8582611901565b8655506119e7565b601f19841661199586611771565b60005b828110156119bd57848901518255600182019150602085019450602081019050611998565b868310156119da57848901516119d6601f8916826118e3565b8355505b6001600288020188555050505b505050505050565b600081905092915050565b6000611a058261116a565b611a0f81856119ef565b9350611a1f818560208601611186565b80840191505092915050565b6000611a3782846119fa565b915081905092915050565b7f4e487b7100000000000000000000000000000000000000000000000000000000600052603260045260246000fd5b60008154611a7e81611740565b611a8881866119ef565b94506001821660008114611aa35760018114611ab857611aeb565b60ff1983168652811515820286019350611aeb565b611ac185611771565b60005b83811015611ae357815481890152600182019150602081019050611ac4565b838801955050505b50505092915050565b6000611b008284611a71565b915081905092915050565b7f4e487b7100000000000000000000000000000000000000000000000000000000600052601160045260246000fd5b6000611b45826116dd565b91507fffffffffffffffffffffffffffffffffffffffffffffffffffffffffffffffff8203611b7757611b76611b0b565b5b600182019050919050565b7f596f7520646f6e27742068617665207065726d697373696f6e20746f2069737360008201527f7565207468697320646f63756d656e7400000000000000000000000000000000602082015250565b6000611bde603083611574565b9150611be982611b82565b604082019050919050565b60006020820190508181036000830152611c0d81611bd1565b905091905056fea2646970667358221220f94fb9770168a0c7e18682d597f602e327b8428c883552000468e9a67744346b64736f6c63430008130033",
  "linkReferences": {},
  "deployedLinkReferences": {}
}