{
  "_format": "hh-sol-artifact-1",
  "contractName": "user",
  "sourceName": "contracts/user.sol",
  "abi": [
    {
      "inputs": [],
      "name": "getDocs",
      "outputs": [
        {
          "components": [
            {
              "internalType": "string",
              "name": "docType",
              "type": "string"
            },
            {
              "internalType": "string",
              "name": "docId",
              "type": "string"
            },
            {
              "internalType": "string",
              "name": "name",
              "type": "string"
            },
            {
              "internalType": "string",
              "name": "dob",
              "type": "string"
            },
            {
              "internalType": "string",
              "name": "org",
              "type": "string"
            }
          ],
          "internalType": "struct organization.doc_info[]",
          "name": "",
          "type": "tuple[]"
        }
      ],
      "stateMutability": "view",
      "type": "function"
    },
    {
      "inputs": [
        {
          "internalType": "string",
          "name": "_name",
          "type": "string"
        },
        {
          "internalType": "string",
          "name": "_email",
          "type": "string"
        },
        {
          "internalType": "string",
          "name": "_dob",
          "type": "string"
        }
      ],
      "name": "registerUser",
      "outputs": [],
      "stateMutability": "nonpayable",
      "type": "function"
    },
    {
      "inputs": [
        {
          "internalType": "address",
          "name": "",
          "type": "address"
        }
      ],
      "name": "users",
      "outputs": [
        {
          "internalType": "string",
          "name": "name",
          "type": "string"
        },
        {
          "internalType": "string",
          "name": "email",
          "type": "string"
        },
        {
          "internalType": "string",
          "name": "dob",
          "type": "string"
        }
      ],
      "stateMutability": "view",
      "type": "function"
    }
  ],
  "bytecode": "0x60806040526040516100109061007f565b604051809103906000f08015801561002c573d6000803e3d6000fd5b50600160006101000a81548173ffffffffffffffffffffffffffffffffffffffff021916908373ffffffffffffffffffffffffffffffffffffffff16021790555034801561007957600080fd5b5061008c565b6119f180610fc983390190565b610f2e8061009b6000396000f3fe608060405234801561001057600080fd5b50600436106100415760003560e01c8063352aebd214610046578063a87430ba14610064578063d637dcfa14610096575b600080fd5b61004e6100b2565b60405161005b91906105f2565b60405180910390f35b61007e60048036038101906100799190610686565b61015a565b60405161008d939291906106fd565b60405180910390f35b6100b060048036038101906100ab919061087e565b61031c565b005b6060600160009054906101000a900473ffffffffffffffffffffffffffffffffffffffff1673ffffffffffffffffffffffffffffffffffffffff16639556973b336040518263ffffffff1660e01b815260040161010f9190610934565b600060405180830381865afa15801561012c573d6000803e3d6000fd5b505050506040513d6000823e3d601f19601f820116820180604052508101906101559190610bc7565b905090565b600060205280600052604060002060009150905080600001805461017d90610c3f565b80601f01602080910402602001604051908101604052809291908181526020018280546101a990610c3f565b80156101f65780601f106101cb576101008083540402835291602001916101f6565b820191906000526020600020905b8154815290600101906020018083116101d957829003601f168201915b50505050509080600101805461020b90610c3f565b80601f016020809104026020016040519081016040528092919081815260200182805461023790610c3f565b80156102845780601f1061025957610100808354040283529160200191610284565b820191906000526020600020905b81548152906001019060200180831161026757829003601f168201915b50505050509080600201805461029990610c3f565b80601f01602080910402602001604051908101604052809291908181526020018280546102c590610c3f565b80156103125780601f106102e757610100808354040283529160200191610312565b820191906000526020600020905b8154815290600101906020018083116102f557829003601f168201915b5050505050905083565b826000803373ffffffffffffffffffffffffffffffffffffffff1673ffffffffffffffffffffffffffffffffffffffff168152602001908152602001600020600001908161036a9190610e26565b50816000803373ffffffffffffffffffffffffffffffffffffffff1673ffffffffffffffffffffffffffffffffffffffff16815260200190815260200160002060010190816103b99190610e26565b50806000803373ffffffffffffffffffffffffffffffffffffffff1673ffffffffffffffffffffffffffffffffffffffff16815260200190815260200160002060020190816104089190610e26565b50505050565b600081519050919050565b600082825260208201905092915050565b6000819050602082019050919050565b600081519050919050565b600082825260208201905092915050565b60005b83811015610474578082015181840152602081019050610459565b60008484015250505050565b6000601f19601f8301169050919050565b600061049c8261043a565b6104a68185610445565b93506104b6818560208601610456565b6104bf81610480565b840191505092915050565b600060a08301600083015184820360008601526104e78282610491565b915050602083015184820360208601526105018282610491565b9150506040830151848203604086015261051b8282610491565b915050606083015184820360608601526105358282610491565b9150506080830151848203608086015261054f8282610491565b9150508091505092915050565b600061056883836104ca565b905092915050565b6000602082019050919050565b60006105888261040e565b6105928185610419565b9350836020820285016105a48561042a565b8060005b858110156105e057848403895281516105c1858261055c565b94506105cc83610570565b925060208a019950506001810190506105a8565b50829750879550505050505092915050565b6000602082019050818103600083015261060c818461057d565b905092915050565b6000604051905090565b600080fd5b600080fd5b600073ffffffffffffffffffffffffffffffffffffffff82169050919050565b600061065382610628565b9050919050565b61066381610648565b811461066e57600080fd5b50565b6000813590506106808161065a565b92915050565b60006020828403121561069c5761069b61061e565b5b60006106aa84828501610671565b91505092915050565b600082825260208201905092915050565b60006106cf8261043a565b6106d981856106b3565b93506106e9818560208601610456565b6106f281610480565b840191505092915050565b6000606082019050818103600083015261071781866106c4565b9050818103602083015261072b81856106c4565b9050818103604083015261073f81846106c4565b9050949350505050565b600080fd5b600080fd5b7f4e487b7100000000000000000000000000000000000000000000000000000000600052604160045260246000fd5b61078b82610480565b810181811067ffffffffffffffff821117156107aa576107a9610753565b5b80604052505050565b60006107bd610614565b90506107c98282610782565b919050565b600067ffffffffffffffff8211156107e9576107e8610753565b5b6107f282610480565b9050602081019050919050565b82818337600083830152505050565b600061082161081c846107ce565b6107b3565b90508281526020810184848401111561083d5761083c61074e565b5b6108488482856107ff565b509392505050565b600082601f83011261086557610864610749565b5b813561087584826020860161080e565b91505092915050565b6000806000606084860312156108975761089661061e565b5b600084013567ffffffffffffffff8111156108b5576108b4610623565b5b6108c186828701610850565b935050602084013567ffffffffffffffff8111156108e2576108e1610623565b5b6108ee86828701610850565b925050604084013567ffffffffffffffff81111561090f5761090e610623565b5b61091b86828701610850565b9150509250925092565b61092e81610648565b82525050565b60006020820190506109496000830184610925565b92915050565b600067ffffffffffffffff82111561096a57610969610753565b5b602082029050602081019050919050565b600080fd5b600080fd5b600080fd5b600061099d610998846107ce565b6107b3565b9050828152602081018484840111156109b9576109b861074e565b5b6109c4848285610456565b509392505050565b600082601f8301126109e1576109e0610749565b5b81516109f184826020860161098a565b91505092915050565b600060a08284031215610a1057610a0f610980565b5b610a1a60a06107b3565b9050600082015167ffffffffffffffff811115610a3a57610a39610985565b5b610a46848285016109cc565b600083015250602082015167ffffffffffffffff811115610a6a57610a69610985565b5b610a76848285016109cc565b602083015250604082015167ffffffffffffffff811115610a9a57610a99610985565b5b610aa6848285016109cc565b604083015250606082015167ffffffffffffffff811115610aca57610ac9610985565b5b610ad6848285016109cc565b606083015250608082015167ffffffffffffffff811115610afa57610af9610985565b5b610b06848285016109cc565b60808301525092915050565b6000610b25610b208461094f565b6107b3565b90508083825260208201905060208402830185811115610b4857610b4761097b565b5b835b81811015610b8f57805167ffffffffffffffff811115610b6d57610b6c610749565b5b808601610b7a89826109fa565b85526020850194505050602081019050610b4a565b5050509392505050565b600082601f830112610bae57610bad610749565b5b8151610bbe848260208601610b12565b91505092915050565b600060208284031215610bdd57610bdc61061e565b5b600082015167ffffffffffffffff811115610bfb57610bfa610623565b5b610c0784828501610b99565b91505092915050565b7f4e487b7100000000000000000000000000000000000000000000000000000000600052602260045260246000fd5b60006002820490506001821680610c5757607f821691505b602082108103610c6a57610c69610c10565b5b50919050565b60008190508160005260206000209050919050565b60006020601f8301049050919050565b600082821b905092915050565b600060088302610cd27fffffffffffffffffffffffffffffffffffffffffffffffffffffffffffffffff82610c95565b610cdc8683610c95565b95508019841693508086168417925050509392505050565b6000819050919050565b6000819050919050565b6000610d23610d1e610d1984610cf4565b610cfe565b610cf4565b9050919050565b6000819050919050565b610d3d83610d08565b610d51610d4982610d2a565b848454610ca2565b825550505050565b600090565b610d66610d59565b610d71818484610d34565b505050565b5b81811015610d9557610d8a600082610d5e565b600181019050610d77565b5050565b601f821115610dda57610dab81610c70565b610db484610c85565b81016020851015610dc3578190505b610dd7610dcf85610c85565b830182610d76565b50505b505050565b600082821c905092915050565b6000610dfd60001984600802610ddf565b1980831691505092915050565b6000610e168383610dec565b9150826002028217905092915050565b610e2f8261043a565b67ffffffffffffffff811115610e4857610e47610753565b5b610e528254610c3f565b610e5d828285610d99565b600060209050601f831160018114610e905760008415610e7e578287015190505b610e888582610e0a565b865550610ef0565b601f198416610e9e86610c70565b60005b82811015610ec657848901518255600182019150602085019450602081019050610ea1565b86831015610ee35784890151610edf601f891682610dec565b8355505b6001600288020188555050505b50505050505056fea264697066735822122096971ff9391e58e1515f4adfc170e061c690d2c5912227d53a956bcc7d16166964736f6c63430008130033608060405234801561001057600080fd5b506119d1806100206000396000f3fe608060405234801561001057600080fd5b50600436106100625760003560e01c80631b3c10831461006757806356c75f4d146100855780635836e03d146100a157806373521478146100bd5780639556973b146100d9578063b83458b014610109575b600080fd5b61006f610139565b60405161007c9190611129565b60405180910390f35b61009f600480360381019061009a9190611294565b610472565b005b6100bb60048036038101906100b69190611294565b610524565b005b6100d760048036038101906100d2919061133b565b610599565b005b6100f360048036038101906100ee9190611426565b610aa1565b6040516101009190611129565b60405180910390f35b610123600480360381019061011e9190611426565b610e77565b604051610130919061146c565b60405180910390f35b60606005805480602002602001604051908101604052809291908181526020016000905b8282101561046957838290600052602060002090600502016040518060a0016040529081600082018054610190906114b6565b80601f01602080910402602001604051908101604052809291908181526020018280546101bc906114b6565b80156102095780601f106101de57610100808354040283529160200191610209565b820191906000526020600020905b8154815290600101906020018083116101ec57829003601f168201915b50505050508152602001600182018054610222906114b6565b80601f016020809104026020016040519081016040528092919081815260200182805461024e906114b6565b801561029b5780601f106102705761010080835404028352916020019161029b565b820191906000526020600020905b81548152906001019060200180831161027e57829003601f168201915b505050505081526020016002820180546102b4906114b6565b80601f01602080910402602001604051908101604052809291908181526020018280546102e0906114b6565b801561032d5780601f106103025761010080835404028352916020019161032d565b820191906000526020600020905b81548152906001019060200180831161031057829003601f168201915b50505050508152602001600382018054610346906114b6565b80601f0160208091040260200160405190810160405280929190818152602001828054610372906114b6565b80156103bf5780601f10610394576101008083540402835291602001916103bf565b820191906000526020600020905b8154815290600101906020018083116103a257829003601f168201915b505050505081526020016004820180546103d8906114b6565b80601f0160208091040260200160405190810160405280929190818152602001828054610404906114b6565b80156104515780601f1061042657610100808354040283529160200191610451565b820191906000526020600020905b81548152906001019060200180831161043457829003601f168201915b5050505050815250508152602001906001019061015d565b50505050905090565b6004339080600181540180825580915050600190039060005260206000200160009091909190916101000a81548173ffffffffffffffffffffffffffffffffffffffff021916908373ffffffffffffffffffffffffffffffffffffffff160217905550806000803373ffffffffffffffffffffffffffffffffffffffff1673ffffffffffffffffffffffffffffffffffffffff16815260200190815260200160002090816105209190611693565b5050565b600160003373ffffffffffffffffffffffffffffffffffffffff1673ffffffffffffffffffffffffffffffffffffffff168152602001908152602001600020819080600181540180825580915050600190039060005260206000200160009091909190915090816105959190611693565b5050565b6000805b600160003373ffffffffffffffffffffffffffffffffffffffff1673ffffffffffffffffffffffffffffffffffffffff16815260200190815260200160002080549050811015610a5557846040516020016105f891906117a1565b60405160208183030381529060405280519060200120600160003373ffffffffffffffffffffffffffffffffffffffff1673ffffffffffffffffffffffffffffffffffffffff168152602001908152602001600020828154811061065f5761065e6117b8565b5b90600052602060002001604051602001610679919061186a565b6040516020818303038152906040528051906020012003610a42576001600260008973ffffffffffffffffffffffffffffffffffffffff1673ffffffffffffffffffffffffffffffffffffffff16815260200190815260200160002060006101000a81548160ff021916908315150217905550600360008873ffffffffffffffffffffffffffffffffffffffff1673ffffffffffffffffffffffffffffffffffffffff1681526020019081526020016000206040518060a001604052808781526020018881526020018681526020018581526020016000803373ffffffffffffffffffffffffffffffffffffffff1673ffffffffffffffffffffffffffffffffffffffff1681526020019081526020016000208054610797906114b6565b80601f01602080910402602001604051908101604052809291908181526020018280546107c3906114b6565b80156108105780601f106107e557610100808354040283529160200191610810565b820191906000526020600020905b8154815290600101906020018083116107f357829003601f168201915b5050505050815250908060018154018082558091505060019003906000526020600020906005020160009091909190915060008201518160000190816108569190611693565b50602082015181600101908161086c9190611693565b5060408201518160020190816108829190611693565b5060608201518160030190816108989190611693565b5060808201518160040190816108ae9190611693565b50505060056040518060a001604052808781526020018881526020018681526020018581526020016000803373ffffffffffffffffffffffffffffffffffffffff1673ffffffffffffffffffffffffffffffffffffffff168152602001908152602001600020805461091f906114b6565b80601f016020809104026020016040519081016040528092919081815260200182805461094b906114b6565b80156109985780601f1061096d57610100808354040283529160200191610998565b820191906000526020600020905b81548152906001019060200180831161097b57829003601f168201915b5050505050815250908060018154018082558091505060019003906000526020600020906005020160009091909190915060008201518160000190816109de9190611693565b5060208201518160010190816109f49190611693565b506040820151816002019081610a0a9190611693565b506060820151816003019081610a209190611693565b506080820151816004019081610a369190611693565b50505060019150610a55565b8080610a4d906118b0565b91505061059d565b5060008103610a99576040517f08c379a0000000000000000000000000000000000000000000000000000000008152600401610a909061197b565b60405180910390fd5b505050505050565b6060600260008373ffffffffffffffffffffffffffffffffffffffff1673ffffffffffffffffffffffffffffffffffffffff16815260200190815260200160002060009054906101000a900460ff1615610e6b57600360008373ffffffffffffffffffffffffffffffffffffffff1673ffffffffffffffffffffffffffffffffffffffff168152602001908152602001600020805480602002602001604051908101604052809291908181526020016000905b82821015610e6057838290600052602060002090600502016040518060a0016040529081600082018054610b87906114b6565b80601f0160208091040260200160405190810160405280929190818152602001828054610bb3906114b6565b8015610c005780601f10610bd557610100808354040283529160200191610c00565b820191906000526020600020905b815481529060010190602001808311610be357829003601f168201915b50505050508152602001600182018054610c19906114b6565b80601f0160208091040260200160405190810160405280929190818152602001828054610c45906114b6565b8015610c925780601f10610c6757610100808354040283529160200191610c92565b820191906000526020600020905b815481529060010190602001808311610c7557829003601f168201915b50505050508152602001600282018054610cab906114b6565b80601f0160208091040260200160405190810160405280929190818152602001828054610cd7906114b6565b8015610d245780601f10610cf957610100808354040283529160200191610d24565b820191906000526020600020905b815481529060010190602001808311610d0757829003601f168201915b50505050508152602001600382018054610d3d906114b6565b80601f0160208091040260200160405190810160405280929190818152602001828054610d69906114b6565b8015610db65780601f10610d8b57610100808354040283529160200191610db6565b820191906000526020600020905b815481529060010190602001808311610d9957829003601f168201915b50505050508152602001600482018054610dcf906114b6565b80601f0160208091040260200160405190810160405280929190818152602001828054610dfb906114b6565b8015610e485780601f10610e1d57610100808354040283529160200191610e48565b820191906000526020600020905b815481529060010190602001808311610e2b57829003601f168201915b50505050508152505081526020019060010190610b54565b505050509050610e72565b6060809150505b919050565b600060011515600260008473ffffffffffffffffffffffffffffffffffffffff1673ffffffffffffffffffffffffffffffffffffffff16815260200190815260200160002060009054906101000a900460ff16151503610eda5760019050610f40565b60001515600260008473ffffffffffffffffffffffffffffffffffffffff1673ffffffffffffffffffffffffffffffffffffffff16815260200190815260200160002060009054906101000a900460ff16151503610f3b5760029050610f40565b600390505b919050565b600081519050919050565b600082825260208201905092915050565b6000819050602082019050919050565b600081519050919050565b600082825260208201905092915050565b60005b83811015610fab578082015181840152602081019050610f90565b60008484015250505050565b6000601f19601f8301169050919050565b6000610fd382610f71565b610fdd8185610f7c565b9350610fed818560208601610f8d565b610ff681610fb7565b840191505092915050565b600060a083016000830151848203600086015261101e8282610fc8565b915050602083015184820360208601526110388282610fc8565b915050604083015184820360408601526110528282610fc8565b9150506060830151848203606086015261106c8282610fc8565b915050608083015184820360808601526110868282610fc8565b9150508091505092915050565b600061109f8383611001565b905092915050565b6000602082019050919050565b60006110bf82610f45565b6110c98185610f50565b9350836020820285016110db85610f61565b8060005b8581101561111757848403895281516110f88582611093565b9450611103836110a7565b925060208a019950506001810190506110df565b50829750879550505050505092915050565b6000602082019050818103600083015261114381846110b4565b905092915050565b6000604051905090565b600080fd5b600080fd5b600080fd5b600080fd5b7f4e487b7100000000000000000000000000000000000000000000000000000000600052604160045260246000fd5b6111a182610fb7565b810181811067ffffffffffffffff821117156111c0576111bf611169565b5b80604052505050565b60006111d361114b565b90506111df8282611198565b919050565b600067ffffffffffffffff8211156111ff576111fe611169565b5b61120882610fb7565b9050602081019050919050565b82818337600083830152505050565b6000611237611232846111e4565b6111c9565b90508281526020810184848401111561125357611252611164565b5b61125e848285611215565b509392505050565b600082601f83011261127b5761127a61115f565b5b813561128b848260208601611224565b91505092915050565b6000602082840312156112aa576112a9611155565b5b600082013567ffffffffffffffff8111156112c8576112c761115a565b5b6112d484828501611266565b91505092915050565b600073ffffffffffffffffffffffffffffffffffffffff82169050919050565b6000611308826112dd565b9050919050565b611318816112fd565b811461132357600080fd5b50565b6000813590506113358161130f565b92915050565b600080600080600060a0868803121561135757611356611155565b5b600061136588828901611326565b955050602086013567ffffffffffffffff8111156113865761138561115a565b5b61139288828901611266565b945050604086013567ffffffffffffffff8111156113b3576113b261115a565b5b6113bf88828901611266565b935050606086013567ffffffffffffffff8111156113e0576113df61115a565b5b6113ec88828901611266565b925050608086013567ffffffffffffffff81111561140d5761140c61115a565b5b61141988828901611266565b9150509295509295909350565b60006020828403121561143c5761143b611155565b5b600061144a84828501611326565b91505092915050565b6000819050919050565b61146681611453565b82525050565b6000602082019050611481600083018461145d565b92915050565b7f4e487b7100000000000000000000000000000000000000000000000000000000600052602260045260246000fd5b600060028204905060018216806114ce57607f821691505b6020821081036114e1576114e0611487565b5b50919050565b60008190508160005260206000209050919050565b60006020601f8301049050919050565b600082821b905092915050565b6000600883026115497fffffffffffffffffffffffffffffffffffffffffffffffffffffffffffffffff8261150c565b611553868361150c565b95508019841693508086168417925050509392505050565b6000819050919050565b600061159061158b61158684611453565b61156b565b611453565b9050919050565b6000819050919050565b6115aa83611575565b6115be6115b682611597565b848454611519565b825550505050565b600090565b6115d36115c6565b6115de8184846115a1565b505050565b5b81811015611602576115f76000826115cb565b6001810190506115e4565b5050565b601f82111561164757611618816114e7565b611621846114fc565b81016020851015611630578190505b61164461163c856114fc565b8301826115e3565b50505b505050565b600082821c905092915050565b600061166a6000198460080261164c565b1980831691505092915050565b60006116838383611659565b9150826002028217905092915050565b61169c82610f71565b67ffffffffffffffff8111156116b5576116b4611169565b5b6116bf82546114b6565b6116ca828285611606565b600060209050601f8311600181146116fd57600084156116eb578287015190505b6116f58582611677565b86555061175d565b601f19841661170b866114e7565b60005b828110156117335784890151825560018201915060208501945060208101905061170e565b86831015611750578489015161174c601f891682611659565b8355505b6001600288020188555050505b505050505050565b600081905092915050565b600061177b82610f71565b6117858185611765565b9350611795818560208601610f8d565b80840191505092915050565b60006117ad8284611770565b915081905092915050565b7f4e487b7100000000000000000000000000000000000000000000000000000000600052603260045260246000fd5b600081546117f4816114b6565b6117fe8186611765565b94506001821660008114611819576001811461182e57611861565b60ff1983168652811515820286019350611861565b611837856114e7565b60005b838110156118595781548189015260018201915060208101905061183a565b838801955050505b50505092915050565b600061187682846117e7565b915081905092915050565b7f4e487b7100000000000000000000000000000000000000000000000000000000600052601160045260246000fd5b60006118bb82611453565b91507fffffffffffffffffffffffffffffffffffffffffffffffffffffffffffffffff82036118ed576118ec611881565b5b600182019050919050565b600082825260208201905092915050565b7f596f7520646f6e27742068617665207065726d697373696f6e20746f2069737360008201527f7565207468697320646f63756d656e7400000000000000000000000000000000602082015250565b60006119656030836118f8565b915061197082611909565b604082019050919050565b6000602082019050818103600083015261199481611958565b905091905056fea26469706673582212205d3bf828bdb78951353b33b12284fdd039230ccdb0c28eb1001722662fbb884164736f6c63430008130033",
  "linkReferences": {},
  "deployedLinkReferences": {}
}