{"contracts/user.sol":{"user":{"abi":[{"inputs":[],"name":"getDocs","outputs":[{"components":[{"internalType":"string","name":"docType","type":"string"},{"internalType":"string","name":"docId","type":"string"},{"internalType":"string","name":"name","type":"string"},{"internalType":"string","name":"dob","type":"string"},{"internalType":"string","name":"org","type":"string"}],"internalType":"struct organization.doc_info[]","name":"","type":"tuple[]"}],"stateMutability":"view","type":"function"}],"evm":{"bytecode":{"linkReferences":{},"object":"60806040526040516100109061007e565b604051809103906000f08015801561002c573d6000803e3d6000fd5b506000806101000a81548173ffffffffffffffffffffffffffffffffffffffff021916908373ffffffffffffffffffffffffffffffffffffffff16021790555034801561007857600080fd5b5061008b565b6119f1806107b183390190565b6107178061009a6000396000f3fe608060405234801561001057600080fd5b506004361061002b5760003560e01c8063352aebd214610030575b600080fd5b61003861004e565b60405161004591906102d8565b60405180910390f35b606060008054906101000a900473ffffffffffffffffffffffffffffffffffffffff1673ffffffffffffffffffffffffffffffffffffffff16639556973b336040518263ffffffff1660e01b81526004016100a9919061033b565b600060405180830381865afa1580156100c6573d6000803e3d6000fd5b505050506040513d6000823e3d601f19601f820116820180604052508101906100ef9190610698565b905090565b600081519050919050565b600082825260208201905092915050565b6000819050602082019050919050565b600081519050919050565b600082825260208201905092915050565b60005b8381101561015a57808201518184015260208101905061013f565b60008484015250505050565b6000601f19601f8301169050919050565b600061018282610120565b61018c818561012b565b935061019c81856020860161013c565b6101a581610166565b840191505092915050565b600060a08301600083015184820360008601526101cd8282610177565b915050602083015184820360208601526101e78282610177565b915050604083015184820360408601526102018282610177565b9150506060830151848203606086015261021b8282610177565b915050608083015184820360808601526102358282610177565b9150508091505092915050565b600061024e83836101b0565b905092915050565b6000602082019050919050565b600061026e826100f4565b61027881856100ff565b93508360208202850161028a85610110565b8060005b858110156102c657848403895281516102a78582610242565b94506102b283610256565b925060208a0199505060018101905061028e565b50829750879550505050505092915050565b600060208201905081810360008301526102f28184610263565b905092915050565b600073ffffffffffffffffffffffffffffffffffffffff82169050919050565b6000610325826102fa565b9050919050565b6103358161031a565b82525050565b6000602082019050610350600083018461032c565b92915050565b6000604051905090565b600080fd5b600080fd5b600080fd5b7f4e487b7100000000000000000000000000000000000000000000000000000000600052604160045260246000fd5b6103a782610166565b810181811067ffffffffffffffff821117156103c6576103c561036f565b5b80604052505050565b60006103d9610356565b90506103e5828261039e565b919050565b600067ffffffffffffffff8211156104055761040461036f565b5b602082029050602081019050919050565b600080fd5b600080fd5b600080fd5b600080fd5b600067ffffffffffffffff8211156104455761044461036f565b5b61044e82610166565b9050602081019050919050565b600061046e6104698461042a565b6103cf565b90508281526020810184848401111561048a57610489610425565b5b61049584828561013c565b509392505050565b600082601f8301126104b2576104b161036a565b5b81516104c284826020860161045b565b91505092915050565b600060a082840312156104e1576104e061041b565b5b6104eb60a06103cf565b9050600082015167ffffffffffffffff81111561050b5761050a610420565b5b6105178482850161049d565b600083015250602082015167ffffffffffffffff81111561053b5761053a610420565b5b6105478482850161049d565b602083015250604082015167ffffffffffffffff81111561056b5761056a610420565b5b6105778482850161049d565b604083015250606082015167ffffffffffffffff81111561059b5761059a610420565b5b6105a78482850161049d565b606083015250608082015167ffffffffffffffff8111156105cb576105ca610420565b5b6105d78482850161049d565b60808301525092915050565b60006105f66105f1846103ea565b6103cf565b9050808382526020820190506020840283018581111561061957610618610416565b5b835b8181101561066057805167ffffffffffffffff81111561063e5761063d61036a565b5b80860161064b89826104cb565b8552602085019450505060208101905061061b565b5050509392505050565b600082601f83011261067f5761067e61036a565b5b815161068f8482602086016105e3565b91505092915050565b6000602082840312156106ae576106ad610360565b5b600082015167ffffffffffffffff8111156106cc576106cb610365565b5b6106d88482850161066a565b9150509291505056fea2646970667358221220d7c8e45cd52fdea27745bbf574c66e1861108ac6b0350066310372d23031d74664736f6c63430008130033608060405234801561001057600080fd5b506119d1806100206000396000f3fe608060405234801561001057600080fd5b50600436106100625760003560e01c80631b3c10831461006757806356c75f4d146100855780635836e03d146100a157806373521478146100bd5780639556973b146100d9578063b83458b014610109575b600080fd5b61006f610139565b60405161007c9190611129565b60405180910390f35b61009f600480360381019061009a9190611294565b610472565b005b6100bb60048036038101906100b69190611294565b610524565b005b6100d760048036038101906100d2919061133b565b610599565b005b6100f360048036038101906100ee9190611426565b610aa1565b6040516101009190611129565b60405180910390f35b610123600480360381019061011e9190611426565b610e77565b604051610130919061146c565b60405180910390f35b60606005805480602002602001604051908101604052809291908181526020016000905b8282101561046957838290600052602060002090600502016040518060a0016040529081600082018054610190906114b6565b80601f01602080910402602001604051908101604052809291908181526020018280546101bc906114b6565b80156102095780601f106101de57610100808354040283529160200191610209565b820191906000526020600020905b8154815290600101906020018083116101ec57829003601f168201915b50505050508152602001600182018054610222906114b6565b80601f016020809104026020016040519081016040528092919081815260200182805461024e906114b6565b801561029b5780601f106102705761010080835404028352916020019161029b565b820191906000526020600020905b81548152906001019060200180831161027e57829003601f168201915b505050505081526020016002820180546102b4906114b6565b80601f01602080910402602001604051908101604052809291908181526020018280546102e0906114b6565b801561032d5780601f106103025761010080835404028352916020019161032d565b820191906000526020600020905b81548152906001019060200180831161031057829003601f168201915b50505050508152602001600382018054610346906114b6565b80601f0160208091040260200160405190810160405280929190818152602001828054610372906114b6565b80156103bf5780601f10610394576101008083540402835291602001916103bf565b820191906000526020600020905b8154815290600101906020018083116103a257829003601f168201915b505050505081526020016004820180546103d8906114b6565b80601f0160208091040260200160405190810160405280929190818152602001828054610404906114b6565b80156104515780601f1061042657610100808354040283529160200191610451565b820191906000526020600020905b81548152906001019060200180831161043457829003601f168201915b5050505050815250508152602001906001019061015d565b50505050905090565b6004339080600181540180825580915050600190039060005260206000200160009091909190916101000a81548173ffffffffffffffffffffffffffffffffffffffff021916908373ffffffffffffffffffffffffffffffffffffffff160217905550806000803373ffffffffffffffffffffffffffffffffffffffff1673ffffffffffffffffffffffffffffffffffffffff16815260200190815260200160002090816105209190611693565b5050565b600160003373ffffffffffffffffffffffffffffffffffffffff1673ffffffffffffffffffffffffffffffffffffffff168152602001908152602001600020819080600181540180825580915050600190039060005260206000200160009091909190915090816105959190611693565b5050565b6000805b600160003373ffffffffffffffffffffffffffffffffffffffff1673ffffffffffffffffffffffffffffffffffffffff16815260200190815260200160002080549050811015610a5557846040516020016105f891906117a1565b60405160208183030381529060405280519060200120600160003373ffffffffffffffffffffffffffffffffffffffff1673ffffffffffffffffffffffffffffffffffffffff168152602001908152602001600020828154811061065f5761065e6117b8565b5b90600052602060002001604051602001610679919061186a565b6040516020818303038152906040528051906020012003610a42576001600260008973ffffffffffffffffffffffffffffffffffffffff1673ffffffffffffffffffffffffffffffffffffffff16815260200190815260200160002060006101000a81548160ff021916908315150217905550600360008873ffffffffffffffffffffffffffffffffffffffff1673ffffffffffffffffffffffffffffffffffffffff1681526020019081526020016000206040518060a001604052808781526020018881526020018681526020018581526020016000803373ffffffffffffffffffffffffffffffffffffffff1673ffffffffffffffffffffffffffffffffffffffff1681526020019081526020016000208054610797906114b6565b80601f01602080910402602001604051908101604052809291908181526020018280546107c3906114b6565b80156108105780601f106107e557610100808354040283529160200191610810565b820191906000526020600020905b8154815290600101906020018083116107f357829003601f168201915b5050505050815250908060018154018082558091505060019003906000526020600020906005020160009091909190915060008201518160000190816108569190611693565b50602082015181600101908161086c9190611693565b5060408201518160020190816108829190611693565b5060608201518160030190816108989190611693565b5060808201518160040190816108ae9190611693565b50505060056040518060a001604052808781526020018881526020018681526020018581526020016000803373ffffffffffffffffffffffffffffffffffffffff1673ffffffffffffffffffffffffffffffffffffffff168152602001908152602001600020805461091f906114b6565b80601f016020809104026020016040519081016040528092919081815260200182805461094b906114b6565b80156109985780601f1061096d57610100808354040283529160200191610998565b820191906000526020600020905b81548152906001019060200180831161097b57829003601f168201915b5050505050815250908060018154018082558091505060019003906000526020600020906005020160009091909190915060008201518160000190816109de9190611693565b5060208201518160010190816109f49190611693565b506040820151816002019081610a0a9190611693565b506060820151816003019081610a209190611693565b506080820151816004019081610a369190611693565b50505060019150610a55565b8080610a4d906118b0565b91505061059d565b5060008103610a99576040517f08c379a0000000000000000000000000000000000000000000000000000000008152600401610a909061197b565b60405180910390fd5b505050505050565b6060600260008373ffffffffffffffffffffffffffffffffffffffff1673ffffffffffffffffffffffffffffffffffffffff16815260200190815260200160002060009054906101000a900460ff1615610e6b57600360008373ffffffffffffffffffffffffffffffffffffffff1673ffffffffffffffffffffffffffffffffffffffff168152602001908152602001600020805480602002602001604051908101604052809291908181526020016000905b82821015610e6057838290600052602060002090600502016040518060a0016040529081600082018054610b87906114b6565b80601f0160208091040260200160405190810160405280929190818152602001828054610bb3906114b6565b8015610c005780601f10610bd557610100808354040283529160200191610c00565b820191906000526020600020905b815481529060010190602001808311610be357829003601f168201915b50505050508152602001600182018054610c19906114b6565b80601f0160208091040260200160405190810160405280929190818152602001828054610c45906114b6565b8015610c925780601f10610c6757610100808354040283529160200191610c92565b820191906000526020600020905b815481529060010190602001808311610c7557829003601f168201915b50505050508152602001600282018054610cab906114b6565b80601f0160208091040260200160405190810160405280929190818152602001828054610cd7906114b6565b8015610d245780601f10610cf957610100808354040283529160200191610d24565b820191906000526020600020905b815481529060010190602001808311610d0757829003601f168201915b50505050508152602001600382018054610d3d906114b6565b80601f0160208091040260200160405190810160405280929190818152602001828054610d69906114b6565b8015610db65780601f10610d8b57610100808354040283529160200191610db6565b820191906000526020600020905b815481529060010190602001808311610d9957829003601f168201915b50505050508152602001600482018054610dcf906114b6565b80601f0160208091040260200160405190810160405280929190818152602001828054610dfb906114b6565b8015610e485780601f10610e1d57610100808354040283529160200191610e48565b820191906000526020600020905b815481529060010190602001808311610e2b57829003601f168201915b50505050508152505081526020019060010190610b54565b505050509050610e72565b6060809150505b919050565b600060011515600260008473ffffffffffffffffffffffffffffffffffffffff1673ffffffffffffffffffffffffffffffffffffffff16815260200190815260200160002060009054906101000a900460ff16151503610eda5760019050610f40565b60001515600260008473ffffffffffffffffffffffffffffffffffffffff1673ffffffffffffffffffffffffffffffffffffffff16815260200190815260200160002060009054906101000a900460ff16151503610f3b5760029050610f40565b600390505b919050565b600081519050919050565b600082825260208201905092915050565b6000819050602082019050919050565b600081519050919050565b600082825260208201905092915050565b60005b83811015610fab578082015181840152602081019050610f90565b60008484015250505050565b6000601f19601f8301169050919050565b6000610fd382610f71565b610fdd8185610f7c565b9350610fed818560208601610f8d565b610ff681610fb7565b840191505092915050565b600060a083016000830151848203600086015261101e8282610fc8565b915050602083015184820360208601526110388282610fc8565b915050604083015184820360408601526110528282610fc8565b9150506060830151848203606086015261106c8282610fc8565b915050608083015184820360808601526110868282610fc8565b9150508091505092915050565b600061109f8383611001565b905092915050565b6000602082019050919050565b60006110bf82610f45565b6110c98185610f50565b9350836020820285016110db85610f61565b8060005b8581101561111757848403895281516110f88582611093565b9450611103836110a7565b925060208a019950506001810190506110df565b50829750879550505050505092915050565b6000602082019050818103600083015261114381846110b4565b905092915050565b6000604051905090565b600080fd5b600080fd5b600080fd5b600080fd5b7f4e487b7100000000000000000000000000000000000000000000000000000000600052604160045260246000fd5b6111a182610fb7565b810181811067ffffffffffffffff821117156111c0576111bf611169565b5b80604052505050565b60006111d361114b565b90506111df8282611198565b919050565b600067ffffffffffffffff8211156111ff576111fe611169565b5b61120882610fb7565b9050602081019050919050565b82818337600083830152505050565b6000611237611232846111e4565b6111c9565b90508281526020810184848401111561125357611252611164565b5b61125e848285611215565b509392505050565b600082601f83011261127b5761127a61115f565b5b813561128b848260208601611224565b91505092915050565b6000602082840312156112aa576112a9611155565b5b600082013567ffffffffffffffff8111156112c8576112c761115a565b5b6112d484828501611266565b91505092915050565b600073ffffffffffffffffffffffffffffffffffffffff82169050919050565b6000611308826112dd565b9050919050565b611318816112fd565b811461132357600080fd5b50565b6000813590506113358161130f565b92915050565b600080600080600060a0868803121561135757611356611155565b5b600061136588828901611326565b955050602086013567ffffffffffffffff8111156113865761138561115a565b5b61139288828901611266565b945050604086013567ffffffffffffffff8111156113b3576113b261115a565b5b6113bf88828901611266565b935050606086013567ffffffffffffffff8111156113e0576113df61115a565b5b6113ec88828901611266565b925050608086013567ffffffffffffffff81111561140d5761140c61115a565b5b61141988828901611266565b9150509295509295909350565b60006020828403121561143c5761143b611155565b5b600061144a84828501611326565b91505092915050565b6000819050919050565b61146681611453565b82525050565b6000602082019050611481600083018461145d565b92915050565b7f4e487b7100000000000000000000000000000000000000000000000000000000600052602260045260246000fd5b600060028204905060018216806114ce57607f821691505b6020821081036114e1576114e0611487565b5b50919050565b60008190508160005260206000209050919050565b60006020601f8301049050919050565b600082821b905092915050565b6000600883026115497fffffffffffffffffffffffffffffffffffffffffffffffffffffffffffffffff8261150c565b611553868361150c565b95508019841693508086168417925050509392505050565b6000819050919050565b600061159061158b61158684611453565b61156b565b611453565b9050919050565b6000819050919050565b6115aa83611575565b6115be6115b682611597565b848454611519565b825550505050565b600090565b6115d36115c6565b6115de8184846115a1565b505050565b5b81811015611602576115f76000826115cb565b6001810190506115e4565b5050565b601f82111561164757611618816114e7565b611621846114fc565b81016020851015611630578190505b61164461163c856114fc565b8301826115e3565b50505b505050565b600082821c905092915050565b600061166a6000198460080261164c565b1980831691505092915050565b60006116838383611659565b9150826002028217905092915050565b61169c82610f71565b67ffffffffffffffff8111156116b5576116b4611169565b5b6116bf82546114b6565b6116ca828285611606565b600060209050601f8311600181146116fd57600084156116eb578287015190505b6116f58582611677565b86555061175d565b601f19841661170b866114e7565b60005b828110156117335784890151825560018201915060208501945060208101905061170e565b86831015611750578489015161174c601f891682611659565b8355505b6001600288020188555050505b505050505050565b600081905092915050565b600061177b82610f71565b6117858185611765565b9350611795818560208601610f8d565b80840191505092915050565b60006117ad8284611770565b915081905092915050565b7f4e487b7100000000000000000000000000000000000000000000000000000000600052603260045260246000fd5b600081546117f4816114b6565b6117fe8186611765565b94506001821660008114611819576001811461182e57611861565b60ff1983168652811515820286019350611861565b611837856114e7565b60005b838110156118595781548189015260018201915060208101905061183a565b838801955050505b50505092915050565b600061187682846117e7565b915081905092915050565b7f4e487b7100000000000000000000000000000000000000000000000000000000600052601160045260246000fd5b60006118bb82611453565b91507fffffffffffffffffffffffffffffffffffffffffffffffffffffffffffffffff82036118ed576118ec611881565b5b600182019050919050565b600082825260208201905092915050565b7f596f7520646f6e27742068617665207065726d697373696f6e20746f2069737360008201527f7565207468697320646f63756d656e7400000000000000000000000000000000602082015250565b60006119656030836118f8565b915061197082611909565b604082019050919050565b6000602082019050818103600083015261199481611958565b905091905056fea26469706673582212205d3bf828bdb78951353b33b12284fdd039230ccdb0c28eb1001722662fbb884164736f6c63430008130033","opcodes":"PUSH1 0x80 PUSH1 0x40 MSTORE PUSH1 0x40 MLOAD PUSH2 0x10 SWAP1 PUSH2 0x7E JUMP JUMPDEST PUSH1 0x40 MLOAD DUP1 SWAP2 SUB SWAP1 PUSH1 0x0 CREATE DUP1 ISZERO DUP1 ISZERO PUSH2 0x2C JUMPI RETURNDATASIZE PUSH1 0x0 DUP1 RETURNDATACOPY RETURNDATASIZE PUSH1 0x0 REVERT JUMPDEST POP PUSH1 0x0 DUP1 PUSH2 0x100 EXP DUP2 SLOAD DUP2 PUSH20 0xFFFFFFFFFFFFFFFFFFFFFFFFFFFFFFFFFFFFFFFF MUL NOT AND SWAP1 DUP4 PUSH20 0xFFFFFFFFFFFFFFFFFFFFFFFFFFFFFFFFFFFFFFFF AND MUL OR SWAP1 SSTORE POP CALLVALUE DUP1 ISZERO PUSH2 0x78 JUMPI PUSH1 0x0 DUP1 REVERT JUMPDEST POP PUSH2 0x8B JUMP JUMPDEST PUSH2 0x19F1 DUP1 PUSH2 0x7B1 DUP4 CODECOPY ADD SWAP1 JUMP JUMPDEST PUSH2 0x717 DUP1 PUSH2 0x9A PUSH1 0x0 CODECOPY PUSH1 0x0 RETURN INVALID PUSH1 0x80 PUSH1 0x40 MSTORE CALLVALUE DUP1 ISZERO PUSH2 0x10 JUMPI PUSH1 0x0 DUP1 REVERT JUMPDEST POP PUSH1 0x4 CALLDATASIZE LT PUSH2 0x2B JUMPI PUSH1 0x0 CALLDATALOAD PUSH1 0xE0 SHR DUP1 PUSH4 0x352AEBD2 EQ PUSH2 0x30 JUMPI JUMPDEST PUSH1 0x0 DUP1 REVERT JUMPDEST PUSH2 0x38 PUSH2 0x4E JUMP JUMPDEST PUSH1 0x40 MLOAD PUSH2 0x45 SWAP2 SWAP1 PUSH2 0x2D8 JUMP JUMPDEST PUSH1 0x40 MLOAD DUP1 SWAP2 SUB SWAP1 RETURN JUMPDEST PUSH1 0x60 PUSH1 0x0 DUP1 SLOAD SWAP1 PUSH2 0x100 EXP SWAP1 DIV PUSH20 0xFFFFFFFFFFFFFFFFFFFFFFFFFFFFFFFFFFFFFFFF AND PUSH20 0xFFFFFFFFFFFFFFFFFFFFFFFFFFFFFFFFFFFFFFFF AND PUSH4 0x9556973B CALLER PUSH1 0x40 MLOAD DUP3 PUSH4 0xFFFFFFFF AND PUSH1 0xE0 SHL DUP2 MSTORE PUSH1 0x4 ADD PUSH2 0xA9 SWAP2 SWAP1 PUSH2 0x33B JUMP JUMPDEST PUSH1 0x0 PUSH1 0x40 MLOAD DUP1 DUP4 SUB DUP2 DUP7 GAS STATICCALL ISZERO DUP1 ISZERO PUSH2 0xC6 JUMPI RETURNDATASIZE PUSH1 0x0 DUP1 RETURNDATACOPY RETURNDATASIZE PUSH1 0x0 REVERT JUMPDEST POP POP POP POP PUSH1 0x40 MLOAD RETURNDATASIZE PUSH1 0x0 DUP3 RETURNDATACOPY RETURNDATASIZE PUSH1 0x1F NOT PUSH1 0x1F DUP3 ADD AND DUP3 ADD DUP1 PUSH1 0x40 MSTORE POP DUP2 ADD SWAP1 PUSH2 0xEF SWAP2 SWAP1 PUSH2 0x698 JUMP JUMPDEST SWAP1 POP SWAP1 JUMP JUMPDEST PUSH1 0x0 DUP2 MLOAD SWAP1 POP SWAP2 SWAP1 POP JUMP JUMPDEST PUSH1 0x0 DUP3 DUP3 MSTORE PUSH1 0x20 DUP3 ADD SWAP1 POP SWAP3 SWAP2 POP POP JUMP JUMPDEST PUSH1 0x0 DUP2 SWAP1 POP PUSH1 0x20 DUP3 ADD SWAP1 POP SWAP2 SWAP1 POP JUMP JUMPDEST PUSH1 0x0 DUP2 MLOAD SWAP1 POP SWAP2 SWAP1 POP JUMP JUMPDEST PUSH1 0x0 DUP3 DUP3 MSTORE PUSH1 0x20 DUP3 ADD SWAP1 POP SWAP3 SWAP2 POP POP JUMP JUMPDEST PUSH1 0x0 JUMPDEST DUP4 DUP2 LT ISZERO PUSH2 0x15A JUMPI DUP1 DUP3 ADD MLOAD DUP2 DUP5 ADD MSTORE PUSH1 0x20 DUP2 ADD SWAP1 POP PUSH2 0x13F JUMP JUMPDEST PUSH1 0x0 DUP5 DUP5 ADD MSTORE POP POP POP POP JUMP JUMPDEST PUSH1 0x0 PUSH1 0x1F NOT PUSH1 0x1F DUP4 ADD AND SWAP1 POP SWAP2 SWAP1 POP JUMP JUMPDEST PUSH1 0x0 PUSH2 0x182 DUP3 PUSH2 0x120 JUMP JUMPDEST PUSH2 0x18C DUP2 DUP6 PUSH2 0x12B JUMP JUMPDEST SWAP4 POP PUSH2 0x19C DUP2 DUP6 PUSH1 0x20 DUP7 ADD PUSH2 0x13C JUMP JUMPDEST PUSH2 0x1A5 DUP2 PUSH2 0x166 JUMP JUMPDEST DUP5 ADD SWAP2 POP POP SWAP3 SWAP2 POP POP JUMP JUMPDEST PUSH1 0x0 PUSH1 0xA0 DUP4 ADD PUSH1 0x0 DUP4 ADD MLOAD DUP5 DUP3 SUB PUSH1 0x0 DUP7 ADD MSTORE PUSH2 0x1CD DUP3 DUP3 PUSH2 0x177 JUMP JUMPDEST SWAP2 POP POP PUSH1 0x20 DUP4 ADD MLOAD DUP5 DUP3 SUB PUSH1 0x20 DUP7 ADD MSTORE PUSH2 0x1E7 DUP3 DUP3 PUSH2 0x177 JUMP JUMPDEST SWAP2 POP POP PUSH1 0x40 DUP4 ADD MLOAD DUP5 DUP3 SUB PUSH1 0x40 DUP7 ADD MSTORE PUSH2 0x201 DUP3 DUP3 PUSH2 0x177 JUMP JUMPDEST SWAP2 POP POP PUSH1 0x60 DUP4 ADD MLOAD DUP5 DUP3 SUB PUSH1 0x60 DUP7 ADD MSTORE PUSH2 0x21B DUP3 DUP3 PUSH2 0x177 JUMP JUMPDEST SWAP2 POP POP PUSH1 0x80 DUP4 ADD MLOAD DUP5 DUP3 SUB PUSH1 0x80 DUP7 ADD MSTORE PUSH2 0x235 DUP3 DUP3 PUSH2 0x177 JUMP JUMPDEST SWAP2 POP POP DUP1 SWAP2 POP POP SWAP3 SWAP2 POP POP JUMP JUMPDEST PUSH1 0x0 PUSH2 0x24E DUP4 DUP4 PUSH2 0x1B0 JUMP JUMPDEST SWAP1 POP SWAP3 SWAP2 POP POP JUMP JUMPDEST PUSH1 0x0 PUSH1 0x20 DUP3 ADD SWAP1 POP SWAP2 SWAP1 POP JUMP JUMPDEST PUSH1 0x0 PUSH2 0x26E DUP3 PUSH2 0xF4 JUMP JUMPDEST PUSH2 0x278 DUP2 DUP6 PUSH2 0xFF JUMP JUMPDEST SWAP4 POP DUP4 PUSH1 0x20 DUP3 MUL DUP6 ADD PUSH2 0x28A DUP6 PUSH2 0x110 JUMP JUMPDEST DUP1 PUSH1 0x0 JUMPDEST DUP6 DUP2 LT ISZERO PUSH2 0x2C6 JUMPI DUP5 DUP5 SUB DUP10 MSTORE DUP2 MLOAD PUSH2 0x2A7 DUP6 DUP3 PUSH2 0x242 JUMP JUMPDEST SWAP5 POP PUSH2 0x2B2 DUP4 PUSH2 0x256 JUMP JUMPDEST SWAP3 POP PUSH1 0x20 DUP11 ADD SWAP10 POP POP PUSH1 0x1 DUP2 ADD SWAP1 POP PUSH2 0x28E JUMP JUMPDEST POP DUP3 SWAP8 POP DUP8 SWAP6 POP POP POP POP POP POP SWAP3 SWAP2 POP POP JUMP JUMPDEST PUSH1 0x0 PUSH1 0x20 DUP3 ADD SWAP1 POP DUP2 DUP2 SUB PUSH1 0x0 DUP4 ADD MSTORE PUSH2 0x2F2 DUP2 DUP5 PUSH2 0x263 JUMP JUMPDEST SWAP1 POP SWAP3 SWAP2 POP POP JUMP JUMPDEST PUSH1 0x0 PUSH20 0xFFFFFFFFFFFFFFFFFFFFFFFFFFFFFFFFFFFFFFFF DUP3 AND SWAP1 POP SWAP2 SWAP1 POP JUMP JUMPDEST PUSH1 0x0 PUSH2 0x325 DUP3 PUSH2 0x2FA JUMP JUMPDEST SWAP1 POP SWAP2 SWAP1 POP JUMP JUMPDEST PUSH2 0x335 DUP2 PUSH2 0x31A JUMP JUMPDEST DUP3 MSTORE POP POP JUMP JUMPDEST PUSH1 0x0 PUSH1 0x20 DUP3 ADD SWAP1 POP PUSH2 0x350 PUSH1 0x0 DUP4 ADD DUP5 PUSH2 0x32C JUMP JUMPDEST SWAP3 SWAP2 POP POP JUMP JUMPDEST PUSH1 0x0 PUSH1 0x40 MLOAD SWAP1 POP SWAP1 JUMP JUMPDEST PUSH1 0x0 DUP1 REVERT JUMPDEST PUSH1 0x0 DUP1 REVERT JUMPDEST PUSH1 0x0 DUP1 REVERT JUMPDEST PUSH32 0x4E487B7100000000000000000000000000000000000000000000000000000000 PUSH1 0x0 MSTORE PUSH1 0x41 PUSH1 0x4 MSTORE PUSH1 0x24 PUSH1 0x0 REVERT JUMPDEST PUSH2 0x3A7 DUP3 PUSH2 0x166 JUMP JUMPDEST DUP2 ADD DUP2 DUP2 LT PUSH8 0xFFFFFFFFFFFFFFFF DUP3 GT OR ISZERO PUSH2 0x3C6 JUMPI PUSH2 0x3C5 PUSH2 0x36F JUMP JUMPDEST JUMPDEST DUP1 PUSH1 0x40 MSTORE POP POP POP JUMP JUMPDEST PUSH1 0x0 PUSH2 0x3D9 PUSH2 0x356 JUMP JUMPDEST SWAP1 POP PUSH2 0x3E5 DUP3 DUP3 PUSH2 0x39E JUMP JUMPDEST SWAP2 SWAP1 POP JUMP JUMPDEST PUSH1 0x0 PUSH8 0xFFFFFFFFFFFFFFFF DUP3 GT ISZERO PUSH2 0x405 JUMPI PUSH2 0x404 PUSH2 0x36F JUMP JUMPDEST JUMPDEST PUSH1 0x20 DUP3 MUL SWAP1 POP PUSH1 0x20 DUP2 ADD SWAP1 POP SWAP2 SWAP1 POP JUMP JUMPDEST PUSH1 0x0 DUP1 REVERT JUMPDEST PUSH1 0x0 DUP1 REVERT JUMPDEST PUSH1 0x0 DUP1 REVERT JUMPDEST PUSH1 0x0 DUP1 REVERT JUMPDEST PUSH1 0x0 PUSH8 0xFFFFFFFFFFFFFFFF DUP3 GT ISZERO PUSH2 0x445 JUMPI PUSH2 0x444 PUSH2 0x36F JUMP JUMPDEST JUMPDEST PUSH2 0x44E DUP3 PUSH2 0x166 JUMP JUMPDEST SWAP1 POP PUSH1 0x20 DUP2 ADD SWAP1 POP SWAP2 SWAP1 POP JUMP JUMPDEST PUSH1 0x0 PUSH2 0x46E PUSH2 0x469 DUP5 PUSH2 0x42A JUMP JUMPDEST PUSH2 0x3CF JUMP JUMPDEST SWAP1 POP DUP3 DUP2 MSTORE PUSH1 0x20 DUP2 ADD DUP5 DUP5 DUP5 ADD GT ISZERO PUSH2 0x48A JUMPI PUSH2 0x489 PUSH2 0x425 JUMP JUMPDEST JUMPDEST PUSH2 0x495 DUP5 DUP3 DUP6 PUSH2 0x13C JUMP JUMPDEST POP SWAP4 SWAP3 POP POP POP JUMP JUMPDEST PUSH1 0x0 DUP3 PUSH1 0x1F DUP4 ADD SLT PUSH2 0x4B2 JUMPI PUSH2 0x4B1 PUSH2 0x36A JUMP JUMPDEST JUMPDEST DUP2 MLOAD PUSH2 0x4C2 DUP5 DUP3 PUSH1 0x20 DUP7 ADD PUSH2 0x45B JUMP JUMPDEST SWAP2 POP POP SWAP3 SWAP2 POP POP JUMP JUMPDEST PUSH1 0x0 PUSH1 0xA0 DUP3 DUP5 SUB SLT ISZERO PUSH2 0x4E1 JUMPI PUSH2 0x4E0 PUSH2 0x41B JUMP JUMPDEST JUMPDEST PUSH2 0x4EB PUSH1 0xA0 PUSH2 0x3CF JUMP JUMPDEST SWAP1 POP PUSH1 0x0 DUP3 ADD MLOAD PUSH8 0xFFFFFFFFFFFFFFFF DUP2 GT ISZERO PUSH2 0x50B JUMPI PUSH2 0x50A PUSH2 0x420 JUMP JUMPDEST JUMPDEST PUSH2 0x517 DUP5 DUP3 DUP6 ADD PUSH2 0x49D JUMP JUMPDEST PUSH1 0x0 DUP4 ADD MSTORE POP PUSH1 0x20 DUP3 ADD MLOAD PUSH8 0xFFFFFFFFFFFFFFFF DUP2 GT ISZERO PUSH2 0x53B JUMPI PUSH2 0x53A PUSH2 0x420 JUMP JUMPDEST JUMPDEST PUSH2 0x547 DUP5 DUP3 DUP6 ADD PUSH2 0x49D JUMP JUMPDEST PUSH1 0x20 DUP4 ADD MSTORE POP PUSH1 0x40 DUP3 ADD MLOAD PUSH8 0xFFFFFFFFFFFFFFFF DUP2 GT ISZERO PUSH2 0x56B JUMPI PUSH2 0x56A PUSH2 0x420 JUMP JUMPDEST JUMPDEST PUSH2 0x577 DUP5 DUP3 DUP6 ADD PUSH2 0x49D JUMP JUMPDEST PUSH1 0x40 DUP4 ADD MSTORE POP PUSH1 0x60 DUP3 ADD MLOAD PUSH8 0xFFFFFFFFFFFFFFFF DUP2 GT ISZERO PUSH2 0x59B JUMPI PUSH2 0x59A PUSH2 0x420 JUMP JUMPDEST JUMPDEST PUSH2 0x5A7 DUP5 DUP3 DUP6 ADD PUSH2 0x49D JUMP JUMPDEST PUSH1 0x60 DUP4 ADD MSTORE POP PUSH1 0x80 DUP3 ADD MLOAD PUSH8 0xFFFFFFFFFFFFFFFF DUP2 GT ISZERO PUSH2 0x5CB JUMPI PUSH2 0x5CA PUSH2 0x420 JUMP JUMPDEST JUMPDEST PUSH2 0x5D7 DUP5 DUP3 DUP6 ADD PUSH2 0x49D JUMP JUMPDEST PUSH1 0x80 DUP4 ADD MSTORE POP SWAP3 SWAP2 POP POP JUMP JUMPDEST PUSH1 0x0 PUSH2 0x5F6 PUSH2 0x5F1 DUP5 PUSH2 0x3EA JUMP JUMPDEST PUSH2 0x3CF JUMP JUMPDEST SWAP1 POP DUP1 DUP4 DUP3 MSTORE PUSH1 0x20 DUP3 ADD SWAP1 POP PUSH1 0x20 DUP5 MUL DUP4 ADD DUP6 DUP2 GT ISZERO PUSH2 0x619 JUMPI PUSH2 0x618 PUSH2 0x416 JUMP JUMPDEST JUMPDEST DUP4 JUMPDEST DUP2 DUP2 LT ISZERO PUSH2 0x660 JUMPI DUP1 MLOAD PUSH8 0xFFFFFFFFFFFFFFFF DUP2 GT ISZERO PUSH2 0x63E JUMPI PUSH2 0x63D PUSH2 0x36A JUMP JUMPDEST JUMPDEST DUP1 DUP7 ADD PUSH2 0x64B DUP10 DUP3 PUSH2 0x4CB JUMP JUMPDEST DUP6 MSTORE PUSH1 0x20 DUP6 ADD SWAP5 POP POP POP PUSH1 0x20 DUP2 ADD SWAP1 POP PUSH2 0x61B JUMP JUMPDEST POP POP POP SWAP4 SWAP3 POP POP POP JUMP JUMPDEST PUSH1 0x0 DUP3 PUSH1 0x1F DUP4 ADD SLT PUSH2 0x67F JUMPI PUSH2 0x67E PUSH2 0x36A JUMP JUMPDEST JUMPDEST DUP2 MLOAD PUSH2 0x68F DUP5 DUP3 PUSH1 0x20 DUP7 ADD PUSH2 0x5E3 JUMP JUMPDEST SWAP2 POP POP SWAP3 SWAP2 POP POP JUMP JUMPDEST PUSH1 0x0 PUSH1 0x20 DUP3 DUP5 SUB SLT ISZERO PUSH2 0x6AE JUMPI PUSH2 0x6AD PUSH2 0x360 JUMP JUMPDEST JUMPDEST PUSH1 0x0 DUP3 ADD MLOAD PUSH8 0xFFFFFFFFFFFFFFFF DUP2 GT ISZERO PUSH2 0x6CC JUMPI PUSH2 0x6CB PUSH2 0x365 JUMP JUMPDEST JUMPDEST PUSH2 0x6D8 DUP5 DUP3 DUP6 ADD PUSH2 0x66A JUMP JUMPDEST SWAP2 POP POP SWAP3 SWAP2 POP POP JUMP INVALID LOG2 PUSH5 0x6970667358 0x22 SLT KECCAK256 0xD7 0xC8 0xE4 0x5C 0xD5 0x2F 0xDE LOG2 PUSH24 0x45BBF574C66E1861108AC6B0350066310372D23031D74664 PUSH20 0x6F6C634300081300336080604052348015610010 JUMPI PUSH1 0x0 DUP1 REVERT JUMPDEST POP PUSH2 0x19D1 DUP1 PUSH2 0x20 PUSH1 0x0 CODECOPY PUSH1 0x0 RETURN INVALID PUSH1 0x80 PUSH1 0x40 MSTORE CALLVALUE DUP1 ISZERO PUSH2 0x10 JUMPI PUSH1 0x0 DUP1 REVERT JUMPDEST POP PUSH1 0x4 CALLDATASIZE LT PUSH2 0x62 JUMPI PUSH1 0x0 CALLDATALOAD PUSH1 0xE0 SHR DUP1 PUSH4 0x1B3C1083 EQ PUSH2 0x67 JUMPI DUP1 PUSH4 0x56C75F4D EQ PUSH2 0x85 JUMPI DUP1 PUSH4 0x5836E03D EQ PUSH2 0xA1 JUMPI DUP1 PUSH4 0x73521478 EQ PUSH2 0xBD JUMPI DUP1 PUSH4 0x9556973B EQ PUSH2 0xD9 JUMPI DUP1 PUSH4 0xB83458B0 EQ PUSH2 0x109 JUMPI JUMPDEST PUSH1 0x0 DUP1 REVERT JUMPDEST PUSH2 0x6F PUSH2 0x139 JUMP JUMPDEST PUSH1 0x40 MLOAD PUSH2 0x7C SWAP2 SWAP1 PUSH2 0x1129 JUMP JUMPDEST PUSH1 0x40 MLOAD DUP1 SWAP2 SUB SWAP1 RETURN JUMPDEST PUSH2 0x9F PUSH1 0x4 DUP1 CALLDATASIZE SUB DUP2 ADD SWAP1 PUSH2 0x9A SWAP2 SWAP1 PUSH2 0x1294 JUMP JUMPDEST PUSH2 0x472 JUMP JUMPDEST STOP JUMPDEST PUSH2 0xBB PUSH1 0x4 DUP1 CALLDATASIZE SUB DUP2 ADD SWAP1 PUSH2 0xB6 SWAP2 SWAP1 PUSH2 0x1294 JUMP JUMPDEST PUSH2 0x524 JUMP JUMPDEST STOP JUMPDEST PUSH2 0xD7 PUSH1 0x4 DUP1 CALLDATASIZE SUB DUP2 ADD SWAP1 PUSH2 0xD2 SWAP2 SWAP1 PUSH2 0x133B JUMP JUMPDEST PUSH2 0x599 JUMP JUMPDEST STOP JUMPDEST PUSH2 0xF3 PUSH1 0x4 DUP1 CALLDATASIZE SUB DUP2 ADD SWAP1 PUSH2 0xEE SWAP2 SWAP1 PUSH2 0x1426 JUMP JUMPDEST PUSH2 0xAA1 JUMP JUMPDEST PUSH1 0x40 MLOAD PUSH2 0x100 SWAP2 SWAP1 PUSH2 0x1129 JUMP JUMPDEST PUSH1 0x40 MLOAD DUP1 SWAP2 SUB SWAP1 RETURN JUMPDEST PUSH2 0x123 PUSH1 0x4 DUP1 CALLDATASIZE SUB DUP2 ADD SWAP1 PUSH2 0x11E SWAP2 SWAP1 PUSH2 0x1426 JUMP JUMPDEST PUSH2 0xE77 JUMP JUMPDEST PUSH1 0x40 MLOAD PUSH2 0x130 SWAP2 SWAP1 PUSH2 0x146C JUMP JUMPDEST PUSH1 0x40 MLOAD DUP1 SWAP2 SUB SWAP1 RETURN JUMPDEST PUSH1 0x60 PUSH1 0x5 DUP1 SLOAD DUP1 PUSH1 0x20 MUL PUSH1 0x20 ADD PUSH1 0x40 MLOAD SWAP1 DUP2 ADD PUSH1 0x40 MSTORE DUP1 SWAP3 SWAP2 SWAP1 DUP2 DUP2 MSTORE PUSH1 0x20 ADD PUSH1 0x0 SWAP1 JUMPDEST DUP3 DUP3 LT ISZERO PUSH2 0x469 JUMPI DUP4 DUP3 SWAP1 PUSH1 0x0 MSTORE PUSH1 0x20 PUSH1 0x0 KECCAK256 SWAP1 PUSH1 0x5 MUL ADD PUSH1 0x40 MLOAD DUP1 PUSH1 0xA0 ADD PUSH1 0x40 MSTORE SWAP1 DUP2 PUSH1 0x0 DUP3 ADD DUP1 SLOAD PUSH2 0x190 SWAP1 PUSH2 0x14B6 JUMP JUMPDEST DUP1 PUSH1 0x1F ADD PUSH1 0x20 DUP1 SWAP2 DIV MUL PUSH1 0x20 ADD PUSH1 0x40 MLOAD SWAP1 DUP2 ADD PUSH1 0x40 MSTORE DUP1 SWAP3 SWAP2 SWAP1 DUP2 DUP2 MSTORE PUSH1 0x20 ADD DUP3 DUP1 SLOAD PUSH2 0x1BC SWAP1 PUSH2 0x14B6 JUMP JUMPDEST DUP1 ISZERO PUSH2 0x209 JUMPI DUP1 PUSH1 0x1F LT PUSH2 0x1DE JUMPI PUSH2 0x100 DUP1 DUP4 SLOAD DIV MUL DUP4 MSTORE SWAP2 PUSH1 0x20 ADD SWAP2 PUSH2 0x209 JUMP JUMPDEST DUP3 ADD SWAP2 SWAP1 PUSH1 0x0 MSTORE PUSH1 0x20 PUSH1 0x0 KECCAK256 SWAP1 JUMPDEST DUP2 SLOAD DUP2 MSTORE SWAP1 PUSH1 0x1 ADD SWAP1 PUSH1 0x20 ADD DUP1 DUP4 GT PUSH2 0x1EC JUMPI DUP3 SWAP1 SUB PUSH1 0x1F AND DUP3 ADD SWAP2 JUMPDEST POP POP POP POP POP DUP2 MSTORE PUSH1 0x20 ADD PUSH1 0x1 DUP3 ADD DUP1 SLOAD PUSH2 0x222 SWAP1 PUSH2 0x14B6 JUMP JUMPDEST DUP1 PUSH1 0x1F ADD PUSH1 0x20 DUP1 SWAP2 DIV MUL PUSH1 0x20 ADD PUSH1 0x40 MLOAD SWAP1 DUP2 ADD PUSH1 0x40 MSTORE DUP1 SWAP3 SWAP2 SWAP1 DUP2 DUP2 MSTORE PUSH1 0x20 ADD DUP3 DUP1 SLOAD PUSH2 0x24E SWAP1 PUSH2 0x14B6 JUMP JUMPDEST DUP1 ISZERO PUSH2 0x29B JUMPI DUP1 PUSH1 0x1F LT PUSH2 0x270 JUMPI PUSH2 0x100 DUP1 DUP4 SLOAD DIV MUL DUP4 MSTORE SWAP2 PUSH1 0x20 ADD SWAP2 PUSH2 0x29B JUMP JUMPDEST DUP3 ADD SWAP2 SWAP1 PUSH1 0x0 MSTORE PUSH1 0x20 PUSH1 0x0 KECCAK256 SWAP1 JUMPDEST DUP2 SLOAD DUP2 MSTORE SWAP1 PUSH1 0x1 ADD SWAP1 PUSH1 0x20 ADD DUP1 DUP4 GT PUSH2 0x27E JUMPI DUP3 SWAP1 SUB PUSH1 0x1F AND DUP3 ADD SWAP2 JUMPDEST POP POP POP POP POP DUP2 MSTORE PUSH1 0x20 ADD PUSH1 0x2 DUP3 ADD DUP1 SLOAD PUSH2 0x2B4 SWAP1 PUSH2 0x14B6 JUMP JUMPDEST DUP1 PUSH1 0x1F ADD PUSH1 0x20 DUP1 SWAP2 DIV MUL PUSH1 0x20 ADD PUSH1 0x40 MLOAD SWAP1 DUP2 ADD PUSH1 0x40 MSTORE DUP1 SWAP3 SWAP2 SWAP1 DUP2 DUP2 MSTORE PUSH1 0x20 ADD DUP3 DUP1 SLOAD PUSH2 0x2E0 SWAP1 PUSH2 0x14B6 JUMP JUMPDEST DUP1 ISZERO PUSH2 0x32D JUMPI DUP1 PUSH1 0x1F LT PUSH2 0x302 JUMPI PUSH2 0x100 DUP1 DUP4 SLOAD DIV MUL DUP4 MSTORE SWAP2 PUSH1 0x20 ADD SWAP2 PUSH2 0x32D JUMP JUMPDEST DUP3 ADD SWAP2 SWAP1 PUSH1 0x0 MSTORE PUSH1 0x20 PUSH1 0x0 KECCAK256 SWAP1 JUMPDEST DUP2 SLOAD DUP2 MSTORE SWAP1 PUSH1 0x1 ADD SWAP1 PUSH1 0x20 ADD DUP1 DUP4 GT PUSH2 0x310 JUMPI DUP3 SWAP1 SUB PUSH1 0x1F AND DUP3 ADD SWAP2 JUMPDEST POP POP POP POP POP DUP2 MSTORE PUSH1 0x20 ADD PUSH1 0x3 DUP3 ADD DUP1 SLOAD PUSH2 0x346 SWAP1 PUSH2 0x14B6 JUMP JUMPDEST DUP1 PUSH1 0x1F ADD PUSH1 0x20 DUP1 SWAP2 DIV MUL PUSH1 0x20 ADD PUSH1 0x40 MLOAD SWAP1 DUP2 ADD PUSH1 0x40 MSTORE DUP1 SWAP3 SWAP2 SWAP1 DUP2 DUP2 MSTORE PUSH1 0x20 ADD DUP3 DUP1 SLOAD PUSH2 0x372 SWAP1 PUSH2 0x14B6 JUMP JUMPDEST DUP1 ISZERO PUSH2 0x3BF JUMPI DUP1 PUSH1 0x1F LT PUSH2 0x394 JUMPI PUSH2 0x100 DUP1 DUP4 SLOAD DIV MUL DUP4 MSTORE SWAP2 PUSH1 0x20 ADD SWAP2 PUSH2 0x3BF JUMP JUMPDEST DUP3 ADD SWAP2 SWAP1 PUSH1 0x0 MSTORE PUSH1 0x20 PUSH1 0x0 KECCAK256 SWAP1 JUMPDEST DUP2 SLOAD DUP2 MSTORE SWAP1 PUSH1 0x1 ADD SWAP1 PUSH1 0x20 ADD DUP1 DUP4 GT PUSH2 0x3A2 JUMPI DUP3 SWAP1 SUB PUSH1 0x1F AND DUP3 ADD SWAP2 JUMPDEST POP POP POP POP POP DUP2 MSTORE PUSH1 0x20 ADD PUSH1 0x4 DUP3 ADD DUP1 SLOAD PUSH2 0x3D8 SWAP1 PUSH2 0x14B6 JUMP JUMPDEST DUP1 PUSH1 0x1F ADD PUSH1 0x20 DUP1 SWAP2 DIV MUL PUSH1 0x20 ADD PUSH1 0x40 MLOAD SWAP1 DUP2 ADD PUSH1 0x40 MSTORE DUP1 SWAP3 SWAP2 SWAP1 DUP2 DUP2 MSTORE PUSH1 0x20 ADD DUP3 DUP1 SLOAD PUSH2 0x404 SWAP1 PUSH2 0x14B6 JUMP JUMPDEST DUP1 ISZERO PUSH2 0x451 JUMPI DUP1 PUSH1 0x1F LT PUSH2 0x426 JUMPI PUSH2 0x100 DUP1 DUP4 SLOAD DIV MUL DUP4 MSTORE SWAP2 PUSH1 0x20 ADD SWAP2 PUSH2 0x451 JUMP JUMPDEST DUP3 ADD SWAP2 SWAP1 PUSH1 0x0 MSTORE PUSH1 0x20 PUSH1 0x0 KECCAK256 SWAP1 JUMPDEST DUP2 SLOAD DUP2 MSTORE SWAP1 PUSH1 0x1 ADD SWAP1 PUSH1 0x20 ADD DUP1 DUP4 GT PUSH2 0x434 JUMPI DUP3 SWAP1 SUB PUSH1 0x1F AND DUP3 ADD SWAP2 JUMPDEST POP POP POP POP POP DUP2 MSTORE POP POP DUP2 MSTORE PUSH1 0x20 ADD SWAP1 PUSH1 0x1 ADD SWAP1 PUSH2 0x15D JUMP JUMPDEST POP POP POP POP SWAP1 POP SWAP1 JUMP JUMPDEST PUSH1 0x4 CALLER SWAP1 DUP1 PUSH1 0x1 DUP2 SLOAD ADD DUP1 DUP3 SSTORE DUP1 SWAP2 POP POP PUSH1 0x1 SWAP1 SUB SWAP1 PUSH1 0x0 MSTORE PUSH1 0x20 PUSH1 0x0 KECCAK256 ADD PUSH1 0x0 SWAP1 SWAP2 SWAP1 SWAP2 SWAP1 SWAP2 PUSH2 0x100 EXP DUP2 SLOAD DUP2 PUSH20 0xFFFFFFFFFFFFFFFFFFFFFFFFFFFFFFFFFFFFFFFF MUL NOT AND SWAP1 DUP4 PUSH20 0xFFFFFFFFFFFFFFFFFFFFFFFFFFFFFFFFFFFFFFFF AND MUL OR SWAP1 SSTORE POP DUP1 PUSH1 0x0 DUP1 CALLER PUSH20 0xFFFFFFFFFFFFFFFFFFFFFFFFFFFFFFFFFFFFFFFF AND PUSH20 0xFFFFFFFFFFFFFFFFFFFFFFFFFFFFFFFFFFFFFFFF AND DUP2 MSTORE PUSH1 0x20 ADD SWAP1 DUP2 MSTORE PUSH1 0x20 ADD PUSH1 0x0 KECCAK256 SWAP1 DUP2 PUSH2 0x520 SWAP2 SWAP1 PUSH2 0x1693 JUMP JUMPDEST POP POP JUMP JUMPDEST PUSH1 0x1 PUSH1 0x0 CALLER PUSH20 0xFFFFFFFFFFFFFFFFFFFFFFFFFFFFFFFFFFFFFFFF AND PUSH20 0xFFFFFFFFFFFFFFFFFFFFFFFFFFFFFFFFFFFFFFFF AND DUP2 MSTORE PUSH1 0x20 ADD SWAP1 DUP2 MSTORE PUSH1 0x20 ADD PUSH1 0x0 KECCAK256 DUP2 SWAP1 DUP1 PUSH1 0x1 DUP2 SLOAD ADD DUP1 DUP3 SSTORE DUP1 SWAP2 POP POP PUSH1 0x1 SWAP1 SUB SWAP1 PUSH1 0x0 MSTORE PUSH1 0x20 PUSH1 0x0 KECCAK256 ADD PUSH1 0x0 SWAP1 SWAP2 SWAP1 SWAP2 SWAP1 SWAP2 POP SWAP1 DUP2 PUSH2 0x595 SWAP2 SWAP1 PUSH2 0x1693 JUMP JUMPDEST POP POP JUMP JUMPDEST PUSH1 0x0 DUP1 JUMPDEST PUSH1 0x1 PUSH1 0x0 CALLER PUSH20 0xFFFFFFFFFFFFFFFFFFFFFFFFFFFFFFFFFFFFFFFF AND PUSH20 0xFFFFFFFFFFFFFFFFFFFFFFFFFFFFFFFFFFFFFFFF AND DUP2 MSTORE PUSH1 0x20 ADD SWAP1 DUP2 MSTORE PUSH1 0x20 ADD PUSH1 0x0 KECCAK256 DUP1 SLOAD SWAP1 POP DUP2 LT ISZERO PUSH2 0xA55 JUMPI DUP5 PUSH1 0x40 MLOAD PUSH1 0x20 ADD PUSH2 0x5F8 SWAP2 SWAP1 PUSH2 0x17A1 JUMP JUMPDEST PUSH1 0x40 MLOAD PUSH1 0x20 DUP2 DUP4 SUB SUB DUP2 MSTORE SWAP1 PUSH1 0x40 MSTORE DUP1 MLOAD SWAP1 PUSH1 0x20 ADD KECCAK256 PUSH1 0x1 PUSH1 0x0 CALLER PUSH20 0xFFFFFFFFFFFFFFFFFFFFFFFFFFFFFFFFFFFFFFFF AND PUSH20 0xFFFFFFFFFFFFFFFFFFFFFFFFFFFFFFFFFFFFFFFF AND DUP2 MSTORE PUSH1 0x20 ADD SWAP1 DUP2 MSTORE PUSH1 0x20 ADD PUSH1 0x0 KECCAK256 DUP3 DUP2 SLOAD DUP2 LT PUSH2 0x65F JUMPI PUSH2 0x65E PUSH2 0x17B8 JUMP JUMPDEST JUMPDEST SWAP1 PUSH1 0x0 MSTORE PUSH1 0x20 PUSH1 0x0 KECCAK256 ADD PUSH1 0x40 MLOAD PUSH1 0x20 ADD PUSH2 0x679 SWAP2 SWAP1 PUSH2 0x186A JUMP JUMPDEST PUSH1 0x40 MLOAD PUSH1 0x20 DUP2 DUP4 SUB SUB DUP2 MSTORE SWAP1 PUSH1 0x40 MSTORE DUP1 MLOAD SWAP1 PUSH1 0x20 ADD KECCAK256 SUB PUSH2 0xA42 JUMPI PUSH1 0x1 PUSH1 0x2 PUSH1 0x0 DUP10 PUSH20 0xFFFFFFFFFFFFFFFFFFFFFFFFFFFFFFFFFFFFFFFF AND PUSH20 0xFFFFFFFFFFFFFFFFFFFFFFFFFFFFFFFFFFFFFFFF AND DUP2 MSTORE PUSH1 0x20 ADD SWAP1 DUP2 MSTORE PUSH1 0x20 ADD PUSH1 0x0 KECCAK256 PUSH1 0x0 PUSH2 0x100 EXP DUP2 SLOAD DUP2 PUSH1 0xFF MUL NOT AND SWAP1 DUP4 ISZERO ISZERO MUL OR SWAP1 SSTORE POP PUSH1 0x3 PUSH1 0x0 DUP9 PUSH20 0xFFFFFFFFFFFFFFFFFFFFFFFFFFFFFFFFFFFFFFFF AND PUSH20 0xFFFFFFFFFFFFFFFFFFFFFFFFFFFFFFFFFFFFFFFF AND DUP2 MSTORE PUSH1 0x20 ADD SWAP1 DUP2 MSTORE PUSH1 0x20 ADD PUSH1 0x0 KECCAK256 PUSH1 0x40 MLOAD DUP1 PUSH1 0xA0 ADD PUSH1 0x40 MSTORE DUP1 DUP8 DUP2 MSTORE PUSH1 0x20 ADD DUP9 DUP2 MSTORE PUSH1 0x20 ADD DUP7 DUP2 MSTORE PUSH1 0x20 ADD DUP6 DUP2 MSTORE PUSH1 0x20 ADD PUSH1 0x0 DUP1 CALLER PUSH20 0xFFFFFFFFFFFFFFFFFFFFFFFFFFFFFFFFFFFFFFFF AND PUSH20 0xFFFFFFFFFFFFFFFFFFFFFFFFFFFFFFFFFFFFFFFF AND DUP2 MSTORE PUSH1 0x20 ADD SWAP1 DUP2 MSTORE PUSH1 0x20 ADD PUSH1 0x0 KECCAK256 DUP1 SLOAD PUSH2 0x797 SWAP1 PUSH2 0x14B6 JUMP JUMPDEST DUP1 PUSH1 0x1F ADD PUSH1 0x20 DUP1 SWAP2 DIV MUL PUSH1 0x20 ADD PUSH1 0x40 MLOAD SWAP1 DUP2 ADD PUSH1 0x40 MSTORE DUP1 SWAP3 SWAP2 SWAP1 DUP2 DUP2 MSTORE PUSH1 0x20 ADD DUP3 DUP1 SLOAD PUSH2 0x7C3 SWAP1 PUSH2 0x14B6 JUMP JUMPDEST DUP1 ISZERO PUSH2 0x810 JUMPI DUP1 PUSH1 0x1F LT PUSH2 0x7E5 JUMPI PUSH2 0x100 DUP1 DUP4 SLOAD DIV MUL DUP4 MSTORE SWAP2 PUSH1 0x20 ADD SWAP2 PUSH2 0x810 JUMP JUMPDEST DUP3 ADD SWAP2 SWAP1 PUSH1 0x0 MSTORE PUSH1 0x20 PUSH1 0x0 KECCAK256 SWAP1 JUMPDEST DUP2 SLOAD DUP2 MSTORE SWAP1 PUSH1 0x1 ADD SWAP1 PUSH1 0x20 ADD DUP1 DUP4 GT PUSH2 0x7F3 JUMPI DUP3 SWAP1 SUB PUSH1 0x1F AND DUP3 ADD SWAP2 JUMPDEST POP POP POP POP POP DUP2 MSTORE POP SWAP1 DUP1 PUSH1 0x1 DUP2 SLOAD ADD DUP1 DUP3 SSTORE DUP1 SWAP2 POP POP PUSH1 0x1 SWAP1 SUB SWAP1 PUSH1 0x0 MSTORE PUSH1 0x20 PUSH1 0x0 KECCAK256 SWAP1 PUSH1 0x5 MUL ADD PUSH1 0x0 SWAP1 SWAP2 SWAP1 SWAP2 SWAP1 SWAP2 POP PUSH1 0x0 DUP3 ADD MLOAD DUP2 PUSH1 0x0 ADD SWAP1 DUP2 PUSH2 0x856 SWAP2 SWAP1 PUSH2 0x1693 JUMP JUMPDEST POP PUSH1 0x20 DUP3 ADD MLOAD DUP2 PUSH1 0x1 ADD SWAP1 DUP2 PUSH2 0x86C SWAP2 SWAP1 PUSH2 0x1693 JUMP JUMPDEST POP PUSH1 0x40 DUP3 ADD MLOAD DUP2 PUSH1 0x2 ADD SWAP1 DUP2 PUSH2 0x882 SWAP2 SWAP1 PUSH2 0x1693 JUMP JUMPDEST POP PUSH1 0x60 DUP3 ADD MLOAD DUP2 PUSH1 0x3 ADD SWAP1 DUP2 PUSH2 0x898 SWAP2 SWAP1 PUSH2 0x1693 JUMP JUMPDEST POP PUSH1 0x80 DUP3 ADD MLOAD DUP2 PUSH1 0x4 ADD SWAP1 DUP2 PUSH2 0x8AE SWAP2 SWAP1 PUSH2 0x1693 JUMP JUMPDEST POP POP POP PUSH1 0x5 PUSH1 0x40 MLOAD DUP1 PUSH1 0xA0 ADD PUSH1 0x40 MSTORE DUP1 DUP8 DUP2 MSTORE PUSH1 0x20 ADD DUP9 DUP2 MSTORE PUSH1 0x20 ADD DUP7 DUP2 MSTORE PUSH1 0x20 ADD DUP6 DUP2 MSTORE PUSH1 0x20 ADD PUSH1 0x0 DUP1 CALLER PUSH20 0xFFFFFFFFFFFFFFFFFFFFFFFFFFFFFFFFFFFFFFFF AND PUSH20 0xFFFFFFFFFFFFFFFFFFFFFFFFFFFFFFFFFFFFFFFF AND DUP2 MSTORE PUSH1 0x20 ADD SWAP1 DUP2 MSTORE PUSH1 0x20 ADD PUSH1 0x0 KECCAK256 DUP1 SLOAD PUSH2 0x91F SWAP1 PUSH2 0x14B6 JUMP JUMPDEST DUP1 PUSH1 0x1F ADD PUSH1 0x20 DUP1 SWAP2 DIV MUL PUSH1 0x20 ADD PUSH1 0x40 MLOAD SWAP1 DUP2 ADD PUSH1 0x40 MSTORE DUP1 SWAP3 SWAP2 SWAP1 DUP2 DUP2 MSTORE PUSH1 0x20 ADD DUP3 DUP1 SLOAD PUSH2 0x94B SWAP1 PUSH2 0x14B6 JUMP JUMPDEST DUP1 ISZERO PUSH2 0x998 JUMPI DUP1 PUSH1 0x1F LT PUSH2 0x96D JUMPI PUSH2 0x100 DUP1 DUP4 SLOAD DIV MUL DUP4 MSTORE SWAP2 PUSH1 0x20 ADD SWAP2 PUSH2 0x998 JUMP JUMPDEST DUP3 ADD SWAP2 SWAP1 PUSH1 0x0 MSTORE PUSH1 0x20 PUSH1 0x0 KECCAK256 SWAP1 JUMPDEST DUP2 SLOAD DUP2 MSTORE SWAP1 PUSH1 0x1 ADD SWAP1 PUSH1 0x20 ADD DUP1 DUP4 GT PUSH2 0x97B JUMPI DUP3 SWAP1 SUB PUSH1 0x1F AND DUP3 ADD SWAP2 JUMPDEST POP POP POP POP POP DUP2 MSTORE POP SWAP1 DUP1 PUSH1 0x1 DUP2 SLOAD ADD DUP1 DUP3 SSTORE DUP1 SWAP2 POP POP PUSH1 0x1 SWAP1 SUB SWAP1 PUSH1 0x0 MSTORE PUSH1 0x20 PUSH1 0x0 KECCAK256 SWAP1 PUSH1 0x5 MUL ADD PUSH1 0x0 SWAP1 SWAP2 SWAP1 SWAP2 SWAP1 SWAP2 POP PUSH1 0x0 DUP3 ADD MLOAD DUP2 PUSH1 0x0 ADD SWAP1 DUP2 PUSH2 0x9DE SWAP2 SWAP1 PUSH2 0x1693 JUMP JUMPDEST POP PUSH1 0x20 DUP3 ADD MLOAD DUP2 PUSH1 0x1 ADD SWAP1 DUP2 PUSH2 0x9F4 SWAP2 SWAP1 PUSH2 0x1693 JUMP JUMPDEST POP PUSH1 0x40 DUP3 ADD MLOAD DUP2 PUSH1 0x2 ADD SWAP1 DUP2 PUSH2 0xA0A SWAP2 SWAP1 PUSH2 0x1693 JUMP JUMPDEST POP PUSH1 0x60 DUP3 ADD MLOAD DUP2 PUSH1 0x3 ADD SWAP1 DUP2 PUSH2 0xA20 SWAP2 SWAP1 PUSH2 0x1693 JUMP JUMPDEST POP PUSH1 0x80 DUP3 ADD MLOAD DUP2 PUSH1 0x4 ADD SWAP1 DUP2 PUSH2 0xA36 SWAP2 SWAP1 PUSH2 0x1693 JUMP JUMPDEST POP POP POP PUSH1 0x1 SWAP2 POP PUSH2 0xA55 JUMP JUMPDEST DUP1 DUP1 PUSH2 0xA4D SWAP1 PUSH2 0x18B0 JUMP JUMPDEST SWAP2 POP POP PUSH2 0x59D JUMP JUMPDEST POP PUSH1 0x0 DUP2 SUB PUSH2 0xA99 JUMPI PUSH1 0x40 MLOAD PUSH32 0x8C379A000000000000000000000000000000000000000000000000000000000 DUP2 MSTORE PUSH1 0x4 ADD PUSH2 0xA90 SWAP1 PUSH2 0x197B JUMP JUMPDEST PUSH1 0x40 MLOAD DUP1 SWAP2 SUB SWAP1 REVERT JUMPDEST POP POP POP POP POP POP JUMP JUMPDEST PUSH1 0x60 PUSH1 0x2 PUSH1 0x0 DUP4 PUSH20 0xFFFFFFFFFFFFFFFFFFFFFFFFFFFFFFFFFFFFFFFF AND PUSH20 0xFFFFFFFFFFFFFFFFFFFFFFFFFFFFFFFFFFFFFFFF AND DUP2 MSTORE PUSH1 0x20 ADD SWAP1 DUP2 MSTORE PUSH1 0x20 ADD PUSH1 0x0 KECCAK256 PUSH1 0x0 SWAP1 SLOAD SWAP1 PUSH2 0x100 EXP SWAP1 DIV PUSH1 0xFF AND ISZERO PUSH2 0xE6B JUMPI PUSH1 0x3 PUSH1 0x0 DUP4 PUSH20 0xFFFFFFFFFFFFFFFFFFFFFFFFFFFFFFFFFFFFFFFF AND PUSH20 0xFFFFFFFFFFFFFFFFFFFFFFFFFFFFFFFFFFFFFFFF AND DUP2 MSTORE PUSH1 0x20 ADD SWAP1 DUP2 MSTORE PUSH1 0x20 ADD PUSH1 0x0 KECCAK256 DUP1 SLOAD DUP1 PUSH1 0x20 MUL PUSH1 0x20 ADD PUSH1 0x40 MLOAD SWAP1 DUP2 ADD PUSH1 0x40 MSTORE DUP1 SWAP3 SWAP2 SWAP1 DUP2 DUP2 MSTORE PUSH1 0x20 ADD PUSH1 0x0 SWAP1 JUMPDEST DUP3 DUP3 LT ISZERO PUSH2 0xE60 JUMPI DUP4 DUP3 SWAP1 PUSH1 0x0 MSTORE PUSH1 0x20 PUSH1 0x0 KECCAK256 SWAP1 PUSH1 0x5 MUL ADD PUSH1 0x40 MLOAD DUP1 PUSH1 0xA0 ADD PUSH1 0x40 MSTORE SWAP1 DUP2 PUSH1 0x0 DUP3 ADD DUP1 SLOAD PUSH2 0xB87 SWAP1 PUSH2 0x14B6 JUMP JUMPDEST DUP1 PUSH1 0x1F ADD PUSH1 0x20 DUP1 SWAP2 DIV MUL PUSH1 0x20 ADD PUSH1 0x40 MLOAD SWAP1 DUP2 ADD PUSH1 0x40 MSTORE DUP1 SWAP3 SWAP2 SWAP1 DUP2 DUP2 MSTORE PUSH1 0x20 ADD DUP3 DUP1 SLOAD PUSH2 0xBB3 SWAP1 PUSH2 0x14B6 JUMP JUMPDEST DUP1 ISZERO PUSH2 0xC00 JUMPI DUP1 PUSH1 0x1F LT PUSH2 0xBD5 JUMPI PUSH2 0x100 DUP1 DUP4 SLOAD DIV MUL DUP4 MSTORE SWAP2 PUSH1 0x20 ADD SWAP2 PUSH2 0xC00 JUMP JUMPDEST DUP3 ADD SWAP2 SWAP1 PUSH1 0x0 MSTORE PUSH1 0x20 PUSH1 0x0 KECCAK256 SWAP1 JUMPDEST DUP2 SLOAD DUP2 MSTORE SWAP1 PUSH1 0x1 ADD SWAP1 PUSH1 0x20 ADD DUP1 DUP4 GT PUSH2 0xBE3 JUMPI DUP3 SWAP1 SUB PUSH1 0x1F AND DUP3 ADD SWAP2 JUMPDEST POP POP POP POP POP DUP2 MSTORE PUSH1 0x20 ADD PUSH1 0x1 DUP3 ADD DUP1 SLOAD PUSH2 0xC19 SWAP1 PUSH2 0x14B6 JUMP JUMPDEST DUP1 PUSH1 0x1F ADD PUSH1 0x20 DUP1 SWAP2 DIV MUL PUSH1 0x20 ADD PUSH1 0x40 MLOAD SWAP1 DUP2 ADD PUSH1 0x40 MSTORE DUP1 SWAP3 SWAP2 SWAP1 DUP2 DUP2 MSTORE PUSH1 0x20 ADD DUP3 DUP1 SLOAD PUSH2 0xC45 SWAP1 PUSH2 0x14B6 JUMP JUMPDEST DUP1 ISZERO PUSH2 0xC92 JUMPI DUP1 PUSH1 0x1F LT PUSH2 0xC67 JUMPI PUSH2 0x100 DUP1 DUP4 SLOAD DIV MUL DUP4 MSTORE SWAP2 PUSH1 0x20 ADD SWAP2 PUSH2 0xC92 JUMP JUMPDEST DUP3 ADD SWAP2 SWAP1 PUSH1 0x0 MSTORE PUSH1 0x20 PUSH1 0x0 KECCAK256 SWAP1 JUMPDEST DUP2 SLOAD DUP2 MSTORE SWAP1 PUSH1 0x1 ADD SWAP1 PUSH1 0x20 ADD DUP1 DUP4 GT PUSH2 0xC75 JUMPI DUP3 SWAP1 SUB PUSH1 0x1F AND DUP3 ADD SWAP2 JUMPDEST POP POP POP POP POP DUP2 MSTORE PUSH1 0x20 ADD PUSH1 0x2 DUP3 ADD DUP1 SLOAD PUSH2 0xCAB SWAP1 PUSH2 0x14B6 JUMP JUMPDEST DUP1 PUSH1 0x1F ADD PUSH1 0x20 DUP1 SWAP2 DIV MUL PUSH1 0x20 ADD PUSH1 0x40 MLOAD SWAP1 DUP2 ADD PUSH1 0x40 MSTORE DUP1 SWAP3 SWAP2 SWAP1 DUP2 DUP2 MSTORE PUSH1 0x20 ADD DUP3 DUP1 SLOAD PUSH2 0xCD7 SWAP1 PUSH2 0x14B6 JUMP JUMPDEST DUP1 ISZERO PUSH2 0xD24 JUMPI DUP1 PUSH1 0x1F LT PUSH2 0xCF9 JUMPI PUSH2 0x100 DUP1 DUP4 SLOAD DIV MUL DUP4 MSTORE SWAP2 PUSH1 0x20 ADD SWAP2 PUSH2 0xD24 JUMP JUMPDEST DUP3 ADD SWAP2 SWAP1 PUSH1 0x0 MSTORE PUSH1 0x20 PUSH1 0x0 KECCAK256 SWAP1 JUMPDEST DUP2 SLOAD DUP2 MSTORE SWAP1 PUSH1 0x1 ADD SWAP1 PUSH1 0x20 ADD DUP1 DUP4 GT PUSH2 0xD07 JUMPI DUP3 SWAP1 SUB PUSH1 0x1F AND DUP3 ADD SWAP2 JUMPDEST POP POP POP POP POP DUP2 MSTORE PUSH1 0x20 ADD PUSH1 0x3 DUP3 ADD DUP1 SLOAD PUSH2 0xD3D SWAP1 PUSH2 0x14B6 JUMP JUMPDEST DUP1 PUSH1 0x1F ADD PUSH1 0x20 DUP1 SWAP2 DIV MUL PUSH1 0x20 ADD PUSH1 0x40 MLOAD SWAP1 DUP2 ADD PUSH1 0x40 MSTORE DUP1 SWAP3 SWAP2 SWAP1 DUP2 DUP2 MSTORE PUSH1 0x20 ADD DUP3 DUP1 SLOAD PUSH2 0xD69 SWAP1 PUSH2 0x14B6 JUMP JUMPDEST DUP1 ISZERO PUSH2 0xDB6 JUMPI DUP1 PUSH1 0x1F LT PUSH2 0xD8B JUMPI PUSH2 0x100 DUP1 DUP4 SLOAD DIV MUL DUP4 MSTORE SWAP2 PUSH1 0x20 ADD SWAP2 PUSH2 0xDB6 JUMP JUMPDEST DUP3 ADD SWAP2 SWAP1 PUSH1 0x0 MSTORE PUSH1 0x20 PUSH1 0x0 KECCAK256 SWAP1 JUMPDEST DUP2 SLOAD DUP2 MSTORE SWAP1 PUSH1 0x1 ADD SWAP1 PUSH1 0x20 ADD DUP1 DUP4 GT PUSH2 0xD99 JUMPI DUP3 SWAP1 SUB PUSH1 0x1F AND DUP3 ADD SWAP2 JUMPDEST POP POP POP POP POP DUP2 MSTORE PUSH1 0x20 ADD PUSH1 0x4 DUP3 ADD DUP1 SLOAD PUSH2 0xDCF SWAP1 PUSH2 0x14B6 JUMP JUMPDEST DUP1 PUSH1 0x1F ADD PUSH1 0x20 DUP1 SWAP2 DIV MUL PUSH1 0x20 ADD PUSH1 0x40 MLOAD SWAP1 DUP2 ADD PUSH1 0x40 MSTORE DUP1 SWAP3 SWAP2 SWAP1 DUP2 DUP2 MSTORE PUSH1 0x20 ADD DUP3 DUP1 SLOAD PUSH2 0xDFB SWAP1 PUSH2 0x14B6 JUMP JUMPDEST DUP1 ISZERO PUSH2 0xE48 JUMPI DUP1 PUSH1 0x1F LT PUSH2 0xE1D JUMPI PUSH2 0x100 DUP1 DUP4 SLOAD DIV MUL DUP4 MSTORE SWAP2 PUSH1 0x20 ADD SWAP2 PUSH2 0xE48 JUMP JUMPDEST DUP3 ADD SWAP2 SWAP1 PUSH1 0x0 MSTORE PUSH1 0x20 PUSH1 0x0 KECCAK256 SWAP1 JUMPDEST DUP2 SLOAD DUP2 MSTORE SWAP1 PUSH1 0x1 ADD SWAP1 PUSH1 0x20 ADD DUP1 DUP4 GT PUSH2 0xE2B JUMPI DUP3 SWAP1 SUB PUSH1 0x1F AND DUP3 ADD SWAP2 JUMPDEST POP POP POP POP POP DUP2 MSTORE POP POP DUP2 MSTORE PUSH1 0x20 ADD SWAP1 PUSH1 0x1 ADD SWAP1 PUSH2 0xB54 JUMP JUMPDEST POP POP POP POP SWAP1 POP PUSH2 0xE72 JUMP JUMPDEST PUSH1 0x60 DUP1 SWAP2 POP POP JUMPDEST SWAP2 SWAP1 POP JUMP JUMPDEST PUSH1 0x0 PUSH1 0x1 ISZERO ISZERO PUSH1 0x2 PUSH1 0x0 DUP5 PUSH20 0xFFFFFFFFFFFFFFFFFFFFFFFFFFFFFFFFFFFFFFFF AND PUSH20 0xFFFFFFFFFFFFFFFFFFFFFFFFFFFFFFFFFFFFFFFF AND DUP2 MSTORE PUSH1 0x20 ADD SWAP1 DUP2 MSTORE PUSH1 0x20 ADD PUSH1 0x0 KECCAK256 PUSH1 0x0 SWAP1 SLOAD SWAP1 PUSH2 0x100 EXP SWAP1 DIV PUSH1 0xFF AND ISZERO ISZERO SUB PUSH2 0xEDA JUMPI PUSH1 0x1 SWAP1 POP PUSH2 0xF40 JUMP JUMPDEST PUSH1 0x0 ISZERO ISZERO PUSH1 0x2 PUSH1 0x0 DUP5 PUSH20 0xFFFFFFFFFFFFFFFFFFFFFFFFFFFFFFFFFFFFFFFF AND PUSH20 0xFFFFFFFFFFFFFFFFFFFFFFFFFFFFFFFFFFFFFFFF AND DUP2 MSTORE PUSH1 0x20 ADD SWAP1 DUP2 MSTORE PUSH1 0x20 ADD PUSH1 0x0 KECCAK256 PUSH1 0x0 SWAP1 SLOAD SWAP1 PUSH2 0x100 EXP SWAP1 DIV PUSH1 0xFF AND ISZERO ISZERO SUB PUSH2 0xF3B JUMPI PUSH1 0x2 SWAP1 POP PUSH2 0xF40 JUMP JUMPDEST PUSH1 0x3 SWAP1 POP JUMPDEST SWAP2 SWAP1 POP JUMP JUMPDEST PUSH1 0x0 DUP2 MLOAD SWAP1 POP SWAP2 SWAP1 POP JUMP JUMPDEST PUSH1 0x0 DUP3 DUP3 MSTORE PUSH1 0x20 DUP3 ADD SWAP1 POP SWAP3 SWAP2 POP POP JUMP JUMPDEST PUSH1 0x0 DUP2 SWAP1 POP PUSH1 0x20 DUP3 ADD SWAP1 POP SWAP2 SWAP1 POP JUMP JUMPDEST PUSH1 0x0 DUP2 MLOAD SWAP1 POP SWAP2 SWAP1 POP JUMP JUMPDEST PUSH1 0x0 DUP3 DUP3 MSTORE PUSH1 0x20 DUP3 ADD SWAP1 POP SWAP3 SWAP2 POP POP JUMP JUMPDEST PUSH1 0x0 JUMPDEST DUP4 DUP2 LT ISZERO PUSH2 0xFAB JUMPI DUP1 DUP3 ADD MLOAD DUP2 DUP5 ADD MSTORE PUSH1 0x20 DUP2 ADD SWAP1 POP PUSH2 0xF90 JUMP JUMPDEST PUSH1 0x0 DUP5 DUP5 ADD MSTORE POP POP POP POP JUMP JUMPDEST PUSH1 0x0 PUSH1 0x1F NOT PUSH1 0x1F DUP4 ADD AND SWAP1 POP SWAP2 SWAP1 POP JUMP JUMPDEST PUSH1 0x0 PUSH2 0xFD3 DUP3 PUSH2 0xF71 JUMP JUMPDEST PUSH2 0xFDD DUP2 DUP6 PUSH2 0xF7C JUMP JUMPDEST SWAP4 POP PUSH2 0xFED DUP2 DUP6 PUSH1 0x20 DUP7 ADD PUSH2 0xF8D JUMP JUMPDEST PUSH2 0xFF6 DUP2 PUSH2 0xFB7 JUMP JUMPDEST DUP5 ADD SWAP2 POP POP SWAP3 SWAP2 POP POP JUMP JUMPDEST PUSH1 0x0 PUSH1 0xA0 DUP4 ADD PUSH1 0x0 DUP4 ADD MLOAD DUP5 DUP3 SUB PUSH1 0x0 DUP7 ADD MSTORE PUSH2 0x101E DUP3 DUP3 PUSH2 0xFC8 JUMP JUMPDEST SWAP2 POP POP PUSH1 0x20 DUP4 ADD MLOAD DUP5 DUP3 SUB PUSH1 0x20 DUP7 ADD MSTORE PUSH2 0x1038 DUP3 DUP3 PUSH2 0xFC8 JUMP JUMPDEST SWAP2 POP POP PUSH1 0x40 DUP4 ADD MLOAD DUP5 DUP3 SUB PUSH1 0x40 DUP7 ADD MSTORE PUSH2 0x1052 DUP3 DUP3 PUSH2 0xFC8 JUMP JUMPDEST SWAP2 POP POP PUSH1 0x60 DUP4 ADD MLOAD DUP5 DUP3 SUB PUSH1 0x60 DUP7 ADD MSTORE PUSH2 0x106C DUP3 DUP3 PUSH2 0xFC8 JUMP JUMPDEST SWAP2 POP POP PUSH1 0x80 DUP4 ADD MLOAD DUP5 DUP3 SUB PUSH1 0x80 DUP7 ADD MSTORE PUSH2 0x1086 DUP3 DUP3 PUSH2 0xFC8 JUMP JUMPDEST SWAP2 POP POP DUP1 SWAP2 POP POP SWAP3 SWAP2 POP POP JUMP JUMPDEST PUSH1 0x0 PUSH2 0x109F DUP4 DUP4 PUSH2 0x1001 JUMP JUMPDEST SWAP1 POP SWAP3 SWAP2 POP POP JUMP JUMPDEST PUSH1 0x0 PUSH1 0x20 DUP3 ADD SWAP1 POP SWAP2 SWAP1 POP JUMP JUMPDEST PUSH1 0x0 PUSH2 0x10BF DUP3 PUSH2 0xF45 JUMP JUMPDEST PUSH2 0x10C9 DUP2 DUP6 PUSH2 0xF50 JUMP JUMPDEST SWAP4 POP DUP4 PUSH1 0x20 DUP3 MUL DUP6 ADD PUSH2 0x10DB DUP6 PUSH2 0xF61 JUMP JUMPDEST DUP1 PUSH1 0x0 JUMPDEST DUP6 DUP2 LT ISZERO PUSH2 0x1117 JUMPI DUP5 DUP5 SUB DUP10 MSTORE DUP2 MLOAD PUSH2 0x10F8 DUP6 DUP3 PUSH2 0x1093 JUMP JUMPDEST SWAP5 POP PUSH2 0x1103 DUP4 PUSH2 0x10A7 JUMP JUMPDEST SWAP3 POP PUSH1 0x20 DUP11 ADD SWAP10 POP POP PUSH1 0x1 DUP2 ADD SWAP1 POP PUSH2 0x10DF JUMP JUMPDEST POP DUP3 SWAP8 POP DUP8 SWAP6 POP POP POP POP POP POP SWAP3 SWAP2 POP POP JUMP JUMPDEST PUSH1 0x0 PUSH1 0x20 DUP3 ADD SWAP1 POP DUP2 DUP2 SUB PUSH1 0x0 DUP4 ADD MSTORE PUSH2 0x1143 DUP2 DUP5 PUSH2 0x10B4 JUMP JUMPDEST SWAP1 POP SWAP3 SWAP2 POP POP JUMP JUMPDEST PUSH1 0x0 PUSH1 0x40 MLOAD SWAP1 POP SWAP1 JUMP JUMPDEST PUSH1 0x0 DUP1 REVERT JUMPDEST PUSH1 0x0 DUP1 REVERT JUMPDEST PUSH1 0x0 DUP1 REVERT JUMPDEST PUSH1 0x0 DUP1 REVERT JUMPDEST PUSH32 0x4E487B7100000000000000000000000000000000000000000000000000000000 PUSH1 0x0 MSTORE PUSH1 0x41 PUSH1 0x4 MSTORE PUSH1 0x24 PUSH1 0x0 REVERT JUMPDEST PUSH2 0x11A1 DUP3 PUSH2 0xFB7 JUMP JUMPDEST DUP2 ADD DUP2 DUP2 LT PUSH8 0xFFFFFFFFFFFFFFFF DUP3 GT OR ISZERO PUSH2 0x11C0 JUMPI PUSH2 0x11BF PUSH2 0x1169 JUMP JUMPDEST JUMPDEST DUP1 PUSH1 0x40 MSTORE POP POP POP JUMP JUMPDEST PUSH1 0x0 PUSH2 0x11D3 PUSH2 0x114B JUMP JUMPDEST SWAP1 POP PUSH2 0x11DF DUP3 DUP3 PUSH2 0x1198 JUMP JUMPDEST SWAP2 SWAP1 POP JUMP JUMPDEST PUSH1 0x0 PUSH8 0xFFFFFFFFFFFFFFFF DUP3 GT ISZERO PUSH2 0x11FF JUMPI PUSH2 0x11FE PUSH2 0x1169 JUMP JUMPDEST JUMPDEST PUSH2 0x1208 DUP3 PUSH2 0xFB7 JUMP JUMPDEST SWAP1 POP PUSH1 0x20 DUP2 ADD SWAP1 POP SWAP2 SWAP1 POP JUMP JUMPDEST DUP3 DUP2 DUP4 CALLDATACOPY PUSH1 0x0 DUP4 DUP4 ADD MSTORE POP POP POP JUMP JUMPDEST PUSH1 0x0 PUSH2 0x1237 PUSH2 0x1232 DUP5 PUSH2 0x11E4 JUMP JUMPDEST PUSH2 0x11C9 JUMP JUMPDEST SWAP1 POP DUP3 DUP2 MSTORE PUSH1 0x20 DUP2 ADD DUP5 DUP5 DUP5 ADD GT ISZERO PUSH2 0x1253 JUMPI PUSH2 0x1252 PUSH2 0x1164 JUMP JUMPDEST JUMPDEST PUSH2 0x125E DUP5 DUP3 DUP6 PUSH2 0x1215 JUMP JUMPDEST POP SWAP4 SWAP3 POP POP POP JUMP JUMPDEST PUSH1 0x0 DUP3 PUSH1 0x1F DUP4 ADD SLT PUSH2 0x127B JUMPI PUSH2 0x127A PUSH2 0x115F JUMP JUMPDEST JUMPDEST DUP2 CALLDATALOAD PUSH2 0x128B DUP5 DUP3 PUSH1 0x20 DUP7 ADD PUSH2 0x1224 JUMP JUMPDEST SWAP2 POP POP SWAP3 SWAP2 POP POP JUMP JUMPDEST PUSH1 0x0 PUSH1 0x20 DUP3 DUP5 SUB SLT ISZERO PUSH2 0x12AA JUMPI PUSH2 0x12A9 PUSH2 0x1155 JUMP JUMPDEST JUMPDEST PUSH1 0x0 DUP3 ADD CALLDATALOAD PUSH8 0xFFFFFFFFFFFFFFFF DUP2 GT ISZERO PUSH2 0x12C8 JUMPI PUSH2 0x12C7 PUSH2 0x115A JUMP JUMPDEST JUMPDEST PUSH2 0x12D4 DUP5 DUP3 DUP6 ADD PUSH2 0x1266 JUMP JUMPDEST SWAP2 POP POP SWAP3 SWAP2 POP POP JUMP JUMPDEST PUSH1 0x0 PUSH20 0xFFFFFFFFFFFFFFFFFFFFFFFFFFFFFFFFFFFFFFFF DUP3 AND SWAP1 POP SWAP2 SWAP1 POP JUMP JUMPDEST PUSH1 0x0 PUSH2 0x1308 DUP3 PUSH2 0x12DD JUMP JUMPDEST SWAP1 POP SWAP2 SWAP1 POP JUMP JUMPDEST PUSH2 0x1318 DUP2 PUSH2 0x12FD JUMP JUMPDEST DUP2 EQ PUSH2 0x1323 JUMPI PUSH1 0x0 DUP1 REVERT JUMPDEST POP JUMP JUMPDEST PUSH1 0x0 DUP2 CALLDATALOAD SWAP1 POP PUSH2 0x1335 DUP2 PUSH2 0x130F JUMP JUMPDEST SWAP3 SWAP2 POP POP JUMP JUMPDEST PUSH1 0x0 DUP1 PUSH1 0x0 DUP1 PUSH1 0x0 PUSH1 0xA0 DUP7 DUP9 SUB SLT ISZERO PUSH2 0x1357 JUMPI PUSH2 0x1356 PUSH2 0x1155 JUMP JUMPDEST JUMPDEST PUSH1 0x0 PUSH2 0x1365 DUP9 DUP3 DUP10 ADD PUSH2 0x1326 JUMP JUMPDEST SWAP6 POP POP PUSH1 0x20 DUP7 ADD CALLDATALOAD PUSH8 0xFFFFFFFFFFFFFFFF DUP2 GT ISZERO PUSH2 0x1386 JUMPI PUSH2 0x1385 PUSH2 0x115A JUMP JUMPDEST JUMPDEST PUSH2 0x1392 DUP9 DUP3 DUP10 ADD PUSH2 0x1266 JUMP JUMPDEST SWAP5 POP POP PUSH1 0x40 DUP7 ADD CALLDATALOAD PUSH8 0xFFFFFFFFFFFFFFFF DUP2 GT ISZERO PUSH2 0x13B3 JUMPI PUSH2 0x13B2 PUSH2 0x115A JUMP JUMPDEST JUMPDEST PUSH2 0x13BF DUP9 DUP3 DUP10 ADD PUSH2 0x1266 JUMP JUMPDEST SWAP4 POP POP PUSH1 0x60 DUP7 ADD CALLDATALOAD PUSH8 0xFFFFFFFFFFFFFFFF DUP2 GT ISZERO PUSH2 0x13E0 JUMPI PUSH2 0x13DF PUSH2 0x115A JUMP JUMPDEST JUMPDEST PUSH2 0x13EC DUP9 DUP3 DUP10 ADD PUSH2 0x1266 JUMP JUMPDEST SWAP3 POP POP PUSH1 0x80 DUP7 ADD CALLDATALOAD PUSH8 0xFFFFFFFFFFFFFFFF DUP2 GT ISZERO PUSH2 0x140D JUMPI PUSH2 0x140C PUSH2 0x115A JUMP JUMPDEST JUMPDEST PUSH2 0x1419 DUP9 DUP3 DUP10 ADD PUSH2 0x1266 JUMP JUMPDEST SWAP2 POP POP SWAP3 SWAP6 POP SWAP3 SWAP6 SWAP1 SWAP4 POP JUMP JUMPDEST PUSH1 0x0 PUSH1 0x20 DUP3 DUP5 SUB SLT ISZERO PUSH2 0x143C JUMPI PUSH2 0x143B PUSH2 0x1155 JUMP JUMPDEST JUMPDEST PUSH1 0x0 PUSH2 0x144A DUP5 DUP3 DUP6 ADD PUSH2 0x1326 JUMP JUMPDEST SWAP2 POP POP SWAP3 SWAP2 POP POP JUMP JUMPDEST PUSH1 0x0 DUP2 SWAP1 POP SWAP2 SWAP1 POP JUMP JUMPDEST PUSH2 0x1466 DUP2 PUSH2 0x1453 JUMP JUMPDEST DUP3 MSTORE POP POP JUMP JUMPDEST PUSH1 0x0 PUSH1 0x20 DUP3 ADD SWAP1 POP PUSH2 0x1481 PUSH1 0x0 DUP4 ADD DUP5 PUSH2 0x145D JUMP JUMPDEST SWAP3 SWAP2 POP POP JUMP JUMPDEST PUSH32 0x4E487B7100000000000000000000000000000000000000000000000000000000 PUSH1 0x0 MSTORE PUSH1 0x22 PUSH1 0x4 MSTORE PUSH1 0x24 PUSH1 0x0 REVERT JUMPDEST PUSH1 0x0 PUSH1 0x2 DUP3 DIV SWAP1 POP PUSH1 0x1 DUP3 AND DUP1 PUSH2 0x14CE JUMPI PUSH1 0x7F DUP3 AND SWAP2 POP JUMPDEST PUSH1 0x20 DUP3 LT DUP2 SUB PUSH2 0x14E1 JUMPI PUSH2 0x14E0 PUSH2 0x1487 JUMP JUMPDEST JUMPDEST POP SWAP2 SWAP1 POP JUMP JUMPDEST PUSH1 0x0 DUP2 SWAP1 POP DUP2 PUSH1 0x0 MSTORE PUSH1 0x20 PUSH1 0x0 KECCAK256 SWAP1 POP SWAP2 SWAP1 POP JUMP JUMPDEST PUSH1 0x0 PUSH1 0x20 PUSH1 0x1F DUP4 ADD DIV SWAP1 POP SWAP2 SWAP1 POP JUMP JUMPDEST PUSH1 0x0 DUP3 DUP3 SHL SWAP1 POP SWAP3 SWAP2 POP POP JUMP JUMPDEST PUSH1 0x0 PUSH1 0x8 DUP4 MUL PUSH2 0x1549 PUSH32 0xFFFFFFFFFFFFFFFFFFFFFFFFFFFFFFFFFFFFFFFFFFFFFFFFFFFFFFFFFFFFFFFF DUP3 PUSH2 0x150C JUMP JUMPDEST PUSH2 0x1553 DUP7 DUP4 PUSH2 0x150C JUMP JUMPDEST SWAP6 POP DUP1 NOT DUP5 AND SWAP4 POP DUP1 DUP7 AND DUP5 OR SWAP3 POP POP POP SWAP4 SWAP3 POP POP POP JUMP JUMPDEST PUSH1 0x0 DUP2 SWAP1 POP SWAP2 SWAP1 POP JUMP JUMPDEST PUSH1 0x0 PUSH2 0x1590 PUSH2 0x158B PUSH2 0x1586 DUP5 PUSH2 0x1453 JUMP JUMPDEST PUSH2 0x156B JUMP JUMPDEST PUSH2 0x1453 JUMP JUMPDEST SWAP1 POP SWAP2 SWAP1 POP JUMP JUMPDEST PUSH1 0x0 DUP2 SWAP1 POP SWAP2 SWAP1 POP JUMP JUMPDEST PUSH2 0x15AA DUP4 PUSH2 0x1575 JUMP JUMPDEST PUSH2 0x15BE PUSH2 0x15B6 DUP3 PUSH2 0x1597 JUMP JUMPDEST DUP5 DUP5 SLOAD PUSH2 0x1519 JUMP JUMPDEST DUP3 SSTORE POP POP POP POP JUMP JUMPDEST PUSH1 0x0 SWAP1 JUMP JUMPDEST PUSH2 0x15D3 PUSH2 0x15C6 JUMP JUMPDEST PUSH2 0x15DE DUP2 DUP5 DUP5 PUSH2 0x15A1 JUMP JUMPDEST POP POP POP JUMP JUMPDEST JUMPDEST DUP2 DUP2 LT ISZERO PUSH2 0x1602 JUMPI PUSH2 0x15F7 PUSH1 0x0 DUP3 PUSH2 0x15CB JUMP JUMPDEST PUSH1 0x1 DUP2 ADD SWAP1 POP PUSH2 0x15E4 JUMP JUMPDEST POP POP JUMP JUMPDEST PUSH1 0x1F DUP3 GT ISZERO PUSH2 0x1647 JUMPI PUSH2 0x1618 DUP2 PUSH2 0x14E7 JUMP JUMPDEST PUSH2 0x1621 DUP5 PUSH2 0x14FC JUMP JUMPDEST DUP2 ADD PUSH1 0x20 DUP6 LT ISZERO PUSH2 0x1630 JUMPI DUP2 SWAP1 POP JUMPDEST PUSH2 0x1644 PUSH2 0x163C DUP6 PUSH2 0x14FC JUMP JUMPDEST DUP4 ADD DUP3 PUSH2 0x15E3 JUMP JUMPDEST POP POP JUMPDEST POP POP POP JUMP JUMPDEST PUSH1 0x0 DUP3 DUP3 SHR SWAP1 POP SWAP3 SWAP2 POP POP JUMP JUMPDEST PUSH1 0x0 PUSH2 0x166A PUSH1 0x0 NOT DUP5 PUSH1 0x8 MUL PUSH2 0x164C JUMP JUMPDEST NOT DUP1 DUP4 AND SWAP2 POP POP SWAP3 SWAP2 POP POP JUMP JUMPDEST PUSH1 0x0 PUSH2 0x1683 DUP4 DUP4 PUSH2 0x1659 JUMP JUMPDEST SWAP2 POP DUP3 PUSH1 0x2 MUL DUP3 OR SWAP1 POP SWAP3 SWAP2 POP POP JUMP JUMPDEST PUSH2 0x169C DUP3 PUSH2 0xF71 JUMP JUMPDEST PUSH8 0xFFFFFFFFFFFFFFFF DUP2 GT ISZERO PUSH2 0x16B5 JUMPI PUSH2 0x16B4 PUSH2 0x1169 JUMP JUMPDEST JUMPDEST PUSH2 0x16BF DUP3 SLOAD PUSH2 0x14B6 JUMP JUMPDEST PUSH2 0x16CA DUP3 DUP3 DUP6 PUSH2 0x1606 JUMP JUMPDEST PUSH1 0x0 PUSH1 0x20 SWAP1 POP PUSH1 0x1F DUP4 GT PUSH1 0x1 DUP2 EQ PUSH2 0x16FD JUMPI PUSH1 0x0 DUP5 ISZERO PUSH2 0x16EB JUMPI DUP3 DUP8 ADD MLOAD SWAP1 POP JUMPDEST PUSH2 0x16F5 DUP6 DUP3 PUSH2 0x1677 JUMP JUMPDEST DUP7 SSTORE POP PUSH2 0x175D JUMP JUMPDEST PUSH1 0x1F NOT DUP5 AND PUSH2 0x170B DUP7 PUSH2 0x14E7 JUMP JUMPDEST PUSH1 0x0 JUMPDEST DUP3 DUP2 LT ISZERO PUSH2 0x1733 JUMPI DUP5 DUP10 ADD MLOAD DUP3 SSTORE PUSH1 0x1 DUP3 ADD SWAP2 POP PUSH1 0x20 DUP6 ADD SWAP5 POP PUSH1 0x20 DUP2 ADD SWAP1 POP PUSH2 0x170E JUMP JUMPDEST DUP7 DUP4 LT ISZERO PUSH2 0x1750 JUMPI DUP5 DUP10 ADD MLOAD PUSH2 0x174C PUSH1 0x1F DUP10 AND DUP3 PUSH2 0x1659 JUMP JUMPDEST DUP4 SSTORE POP JUMPDEST PUSH1 0x1 PUSH1 0x2 DUP9 MUL ADD DUP9 SSTORE POP POP POP JUMPDEST POP POP POP POP POP POP JUMP JUMPDEST PUSH1 0x0 DUP2 SWAP1 POP SWAP3 SWAP2 POP POP JUMP JUMPDEST PUSH1 0x0 PUSH2 0x177B DUP3 PUSH2 0xF71 JUMP JUMPDEST PUSH2 0x1785 DUP2 DUP6 PUSH2 0x1765 JUMP JUMPDEST SWAP4 POP PUSH2 0x1795 DUP2 DUP6 PUSH1 0x20 DUP7 ADD PUSH2 0xF8D JUMP JUMPDEST DUP1 DUP5 ADD SWAP2 POP POP SWAP3 SWAP2 POP POP JUMP JUMPDEST PUSH1 0x0 PUSH2 0x17AD DUP3 DUP5 PUSH2 0x1770 JUMP JUMPDEST SWAP2 POP DUP2 SWAP1 POP SWAP3 SWAP2 POP POP JUMP JUMPDEST PUSH32 0x4E487B7100000000000000000000000000000000000000000000000000000000 PUSH1 0x0 MSTORE PUSH1 0x32 PUSH1 0x4 MSTORE PUSH1 0x24 PUSH1 0x0 REVERT JUMPDEST PUSH1 0x0 DUP2 SLOAD PUSH2 0x17F4 DUP2 PUSH2 0x14B6 JUMP JUMPDEST PUSH2 0x17FE DUP2 DUP7 PUSH2 0x1765 JUMP JUMPDEST SWAP5 POP PUSH1 0x1 DUP3 AND PUSH1 0x0 DUP2 EQ PUSH2 0x1819 JUMPI PUSH1 0x1 DUP2 EQ PUSH2 0x182E JUMPI PUSH2 0x1861 JUMP JUMPDEST PUSH1 0xFF NOT DUP4 AND DUP7 MSTORE DUP2 ISZERO ISZERO DUP3 MUL DUP7 ADD SWAP4 POP PUSH2 0x1861 JUMP JUMPDEST PUSH2 0x1837 DUP6 PUSH2 0x14E7 JUMP JUMPDEST PUSH1 0x0 JUMPDEST DUP4 DUP2 LT ISZERO PUSH2 0x1859 JUMPI DUP2 SLOAD DUP2 DUP10 ADD MSTORE PUSH1 0x1 DUP3 ADD SWAP2 POP PUSH1 0x20 DUP2 ADD SWAP1 POP PUSH2 0x183A JUMP JUMPDEST DUP4 DUP9 ADD SWAP6 POP POP POP JUMPDEST POP POP POP SWAP3 SWAP2 POP POP JUMP JUMPDEST PUSH1 0x0 PUSH2 0x1876 DUP3 DUP5 PUSH2 0x17E7 JUMP JUMPDEST SWAP2 POP DUP2 SWAP1 POP SWAP3 SWAP2 POP POP JUMP JUMPDEST PUSH32 0x4E487B7100000000000000000000000000000000000000000000000000000000 PUSH1 0x0 MSTORE PUSH1 0x11 PUSH1 0x4 MSTORE PUSH1 0x24 PUSH1 0x0 REVERT JUMPDEST PUSH1 0x0 PUSH2 0x18BB DUP3 PUSH2 0x1453 JUMP JUMPDEST SWAP2 POP PUSH32 0xFFFFFFFFFFFFFFFFFFFFFFFFFFFFFFFFFFFFFFFFFFFFFFFFFFFFFFFFFFFFFFFF DUP3 SUB PUSH2 0x18ED JUMPI PUSH2 0x18EC PUSH2 0x1881 JUMP JUMPDEST JUMPDEST PUSH1 0x1 DUP3 ADD SWAP1 POP SWAP2 SWAP1 POP JUMP JUMPDEST PUSH1 0x0 DUP3 DUP3 MSTORE PUSH1 0x20 DUP3 ADD SWAP1 POP SWAP3 SWAP2 POP POP JUMP JUMPDEST PUSH32 0x596F7520646F6E27742068617665207065726D697373696F6E20746F20697373 PUSH1 0x0 DUP3 ADD MSTORE PUSH32 0x7565207468697320646F63756D656E7400000000000000000000000000000000 PUSH1 0x20 DUP3 ADD MSTORE POP JUMP JUMPDEST PUSH1 0x0 PUSH2 0x1965 PUSH1 0x30 DUP4 PUSH2 0x18F8 JUMP JUMPDEST SWAP2 POP PUSH2 0x1970 DUP3 PUSH2 0x1909 JUMP JUMPDEST PUSH1 0x40 DUP3 ADD SWAP1 POP SWAP2 SWAP1 POP JUMP JUMPDEST PUSH1 0x0 PUSH1 0x20 DUP3 ADD SWAP1 POP DUP2 DUP2 SUB PUSH1 0x0 DUP4 ADD MSTORE PUSH2 0x1994 DUP2 PUSH2 0x1958 JUMP JUMPDEST SWAP1 POP SWAP2 SWAP1 POP JUMP INVALID LOG2 PUSH5 0x6970667358 0x22 SLT KECCAK256 0x5D EXTCODESIZE 0xF8 0x28 0xBD 0xB7 DUP10 MLOAD CALLDATALOAD EXTCODESIZE CALLER 0xB1 0x22 DUP5 REVERT 0xD0 CODECOPY 0x23 0xC 0xCD 0xB0 0xC2 DUP15 0xB1 STOP OR 0x22 PUSH7 0x2FBB884164736F PUSH13 0x63430008130033000000000000 "},"methodIdentifiers":{"getDocs()":"352aebd2"}}}}}